{
	"MyContract.sol": {
		"MyContract": {
			"abi": [
				{
					"inputs": [],
					"stateMutability": "nonpayable",
					"type": "constructor"
				},
				{
					"anonymous": false,
					"inputs": [
						{
							"indexed": false,
							"internalType": "string",
							"name": "newData",
							"type": "string"
						}
					],
					"name": "DataUpdated",
					"type": "event"
				},
				{
					"anonymous": false,
					"inputs": [
						{
							"indexed": false,
							"internalType": "uint256",
							"name": "userId",
							"type": "uint256"
						},
						{
							"indexed": false,
							"internalType": "address",
							"name": "approver",
							"type": "address"
						}
					],
					"name": "UserApproved",
					"type": "event"
				},
				{
					"anonymous": false,
					"inputs": [
						{
							"indexed": false,
							"internalType": "uint256",
							"name": "userId",
							"type": "uint256"
						},
						{
							"indexed": false,
							"internalType": "address",
							"name": "userAddress",
							"type": "address"
						}
					],
					"name": "UserRegistered",
					"type": "event"
				},
				{
					"stateMutability": "payable",
					"type": "fallback"
				},
				{
					"inputs": [
						{
							"internalType": "uint256",
							"name": "_userId",
							"type": "uint256"
						}
					],
					"name": "approveUser",
					"outputs": [],
					"stateMutability": "nonpayable",
					"type": "function"
				},
				{
					"inputs": [],
					"name": "data",
					"outputs": [
						{
							"internalType": "string",
							"name": "",
							"type": "string"
						}
					],
					"stateMutability": "view",
					"type": "function"
				},
				{
					"inputs": [],
					"name": "getData",
					"outputs": [
						{
							"internalType": "string",
							"name": "",
							"type": "string"
						}
					],
					"stateMutability": "view",
					"type": "function"
				},
				{
					"inputs": [],
					"name": "getOwner",
					"outputs": [
						{
							"internalType": "address",
							"name": "",
							"type": "address"
						}
					],
					"stateMutability": "view",
					"type": "function"
				},
				{
					"inputs": [
						{
							"internalType": "string",
							"name": "",
							"type": "string"
						}
					],
					"name": "registerUser",
					"outputs": [],
					"stateMutability": "nonpayable",
					"type": "function"
				},
				{
					"inputs": [
						{
							"internalType": "string",
							"name": "_data",
							"type": "string"
						}
					],
					"name": "setData",
					"outputs": [],
					"stateMutability": "nonpayable",
					"type": "function"
				},
				{
					"inputs": [
						{
							"internalType": "address",
							"name": "userAddress",
							"type": "address"
						}
					],
					"name": "usageId",
					"outputs": [
						{
							"internalType": "uint256",
							"name": "",
							"type": "uint256"
						}
					],
					"stateMutability": "pure",
					"type": "function"
				},
				{
					"stateMutability": "payable",
					"type": "receive"
				}
			],
			"devdoc": {
				"kind": "dev",
				"methods": {},
				"version": 1
			},
			"evm": {
				"assembly": "    /* \"MyContract.sol\":57:2067  contract MyContract {... */\n  mstore(0x40, 0x80)\n    /* \"MyContract.sol\":426:583  constructor() {... */\n  callvalue\n  dup1\n  iszero\n  tag_1\n  jumpi\n  0x00\n  dup1\n  revert\ntag_1:\n  pop\n    /* \"MyContract.sol\":466:467  1 */\n  0x01\n    /* \"MyContract.sol\":450:463  userIdCounter */\n  dup1\n    /* \"MyContract.sol\":450:467  userIdCounter = 1 */\n  dup2\n  swap1\n  sstore\n  pop\n    /* \"MyContract.sol\":521:531  msg.sender */\n  caller\n    /* \"MyContract.sol\":505:518  contractOwner */\n  0x02\n  0x00\n    /* \"MyContract.sol\":505:531  contractOwner = msg.sender */\n  0x0100\n  exp\n  dup2\n  sload\n  dup2\n  0xffffffffffffffffffffffffffffffffffffffff\n  mul\n  not\n  and\n  swap1\n  dup4\n  0xffffffffffffffffffffffffffffffffffffffff\n  and\n  mul\n  or\n  swap1\n  sstore\n  pop\n    /* \"MyContract.sol\":57:2067  contract MyContract {... */\n  dataSize(sub_0)\n  dup1\n  dataOffset(sub_0)\n  0x00\n  codecopy\n  0x00\n  return\nstop\n\nsub_0: assembly {\n        /* \"MyContract.sol\":57:2067  contract MyContract {... */\n      mstore(0x40, 0x80)\n      jumpi(tag_1, lt(calldatasize, 0x04))\n      shr(0xe0, calldataload(0x00))\n      dup1\n      0x704f1b94\n      gt\n      tag_10\n      jumpi\n      dup1\n      0x704f1b94\n      eq\n      tag_6\n      jumpi\n      dup1\n      0x73d4a13a\n      eq\n      tag_7\n      jumpi\n      dup1\n      0x893d20e8\n      eq\n      tag_8\n      jumpi\n      dup1\n      0xbdccea16\n      eq\n      tag_9\n      jumpi\n      jump(tag_2)\n    tag_10:\n      dup1\n      0x21c4d12a\n      eq\n      tag_3\n      jumpi\n      dup1\n      0x3bc5de30\n      eq\n      tag_4\n      jumpi\n      dup1\n      0x47064d6a\n      eq\n      tag_5\n      jumpi\n      jump(tag_2)\n    tag_1:\n      jumpi(tag_2, calldatasize)\n      stop\n    tag_2:\n      stop\n        /* \"MyContract.sol\":973:1309  function approveUser(uint256 _userId) public {... */\n    tag_3:\n      callvalue\n      dup1\n      iszero\n      tag_15\n      jumpi\n      0x00\n      dup1\n      revert\n    tag_15:\n      pop\n      tag_16\n      0x04\n      dup1\n      calldatasize\n      sub\n      dup2\n      add\n      swap1\n      tag_17\n      swap2\n      swap1\n      tag_18\n      jump\t// in\n    tag_17:\n      tag_19\n      jump\t// in\n    tag_16:\n      stop\n        /* \"MyContract.sol\":1982:2065  function getData() public view returns (string memory) {... */\n    tag_4:\n      callvalue\n      dup1\n      iszero\n      tag_20\n      jumpi\n      0x00\n      dup1\n      revert\n    tag_20:\n      pop\n      tag_21\n      tag_22\n      jump\t// in\n    tag_21:\n      mload(0x40)\n      tag_23\n      swap2\n      swap1\n      tag_24\n      jump\t// in\n    tag_23:\n      mload(0x40)\n      dup1\n      swap2\n      sub\n      swap1\n      return\n        /* \"MyContract.sol\":1315:1534  function setData(string memory _data) public {... */\n    tag_5:\n      callvalue\n      dup1\n      iszero\n      tag_25\n      jumpi\n      0x00\n      dup1\n      revert\n    tag_25:\n      pop\n      tag_26\n      0x04\n      dup1\n      calldatasize\n      sub\n      dup2\n      add\n      swap1\n      tag_27\n      swap2\n      swap1\n      tag_28\n      jump\t// in\n    tag_27:\n      tag_29\n      jump\t// in\n    tag_26:\n      stop\n        /* \"MyContract.sol\":748:967  function registerUser(string memory) public {... */\n    tag_6:\n      callvalue\n      dup1\n      iszero\n      tag_30\n      jumpi\n      0x00\n      dup1\n      revert\n    tag_30:\n      pop\n      tag_31\n      0x04\n      dup1\n      calldatasize\n      sub\n      dup2\n      add\n      swap1\n      tag_32\n      swap2\n      swap1\n      tag_28\n      jump\t// in\n    tag_32:\n      tag_33\n      jump\t// in\n    tag_31:\n      stop\n        /* \"MyContract.sol\":83:101  string public data */\n    tag_7:\n      callvalue\n      dup1\n      iszero\n      tag_34\n      jumpi\n      0x00\n      dup1\n      revert\n    tag_34:\n      pop\n      tag_35\n      tag_36\n      jump\t// in\n    tag_35:\n      mload(0x40)\n      tag_37\n      swap2\n      swap1\n      tag_24\n      jump\t// in\n    tag_37:\n      mload(0x40)\n      dup1\n      swap2\n      sub\n      swap1\n      return\n        /* \"MyContract.sol\":1816:1903  function getOwner() public view returns (address) {... */\n    tag_8:\n      callvalue\n      dup1\n      iszero\n      tag_38\n      jumpi\n      0x00\n      dup1\n      revert\n    tag_38:\n      pop\n      tag_39\n      tag_40\n      jump\t// in\n    tag_39:\n      mload(0x40)\n      tag_41\n      swap2\n      swap1\n      tag_42\n      jump\t// in\n    tag_41:\n      mload(0x40)\n      dup1\n      swap2\n      sub\n      swap1\n      return\n        /* \"MyContract.sol\":1540:1810  function usageId(address userAddress) public pure returns (uint256) {... */\n    tag_9:\n      callvalue\n      dup1\n      iszero\n      tag_43\n      jumpi\n      0x00\n      dup1\n      revert\n    tag_43:\n      pop\n      tag_44\n      0x04\n      dup1\n      calldatasize\n      sub\n      dup2\n      add\n      swap1\n      tag_45\n      swap2\n      swap1\n      tag_46\n      jump\t// in\n    tag_45:\n      tag_47\n      jump\t// in\n    tag_44:\n      mload(0x40)\n      tag_48\n      swap2\n      swap1\n      tag_49\n      jump\t// in\n    tag_48:\n      mload(0x40)\n      dup1\n      swap2\n      sub\n      swap1\n      return\n        /* \"MyContract.sol\":973:1309  function approveUser(uint256 _userId) public {... */\n    tag_19:\n        /* \"MyContract.sol\":1050:1063  contractOwner */\n      0x02\n      0x00\n      swap1\n      sload\n      swap1\n      0x0100\n      exp\n      swap1\n      div\n      0xffffffffffffffffffffffffffffffffffffffff\n      and\n        /* \"MyContract.sol\":1036:1063  msg.sender == contractOwner */\n      0xffffffffffffffffffffffffffffffffffffffff\n      and\n        /* \"MyContract.sol\":1036:1046  msg.sender */\n      caller\n        /* \"MyContract.sol\":1036:1063  msg.sender == contractOwner */\n      0xffffffffffffffffffffffffffffffffffffffff\n      and\n      eq\n        /* \"MyContract.sol\":1028:1100  require(msg.sender == contractOwner, \"Only the owner can approve users\") */\n      tag_51\n      jumpi\n      mload(0x40)\n      0x08c379a000000000000000000000000000000000000000000000000000000000\n      dup2\n      mstore\n      0x04\n      add\n      tag_52\n      swap1\n      tag_53\n      jump\t// in\n    tag_52:\n      mload(0x40)\n      dup1\n      swap2\n      sub\n      swap1\n      revert\n    tag_51:\n        /* \"MyContract.sol\":1155:1168  approvedUsers */\n      0x03\n        /* \"MyContract.sol\":1155:1177  approvedUsers[_userId] */\n      0x00\n        /* \"MyContract.sol\":1169:1176  _userId */\n      dup3\n        /* \"MyContract.sol\":1155:1177  approvedUsers[_userId] */\n      dup2\n      mstore\n      0x20\n      add\n      swap1\n      dup2\n      mstore\n      0x20\n      add\n      0x00\n      keccak256\n      0x00\n      swap1\n      sload\n      swap1\n      0x0100\n      exp\n      swap1\n      div\n      0xff\n      and\n        /* \"MyContract.sol\":1154:1177  !approvedUsers[_userId] */\n      iszero\n        /* \"MyContract.sol\":1146:1206  require(!approvedUsers[_userId], \"User is already approved\") */\n      tag_54\n      jumpi\n      mload(0x40)\n      0x08c379a000000000000000000000000000000000000000000000000000000000\n      dup2\n      mstore\n      0x04\n      add\n      tag_55\n      swap1\n      tag_56\n      jump\t// in\n    tag_55:\n      mload(0x40)\n      dup1\n      swap2\n      sub\n      swap1\n      revert\n    tag_54:\n        /* \"MyContract.sol\":1250:1254  true */\n      0x01\n        /* \"MyContract.sol\":1225:1238  approvedUsers */\n      0x03\n        /* \"MyContract.sol\":1225:1247  approvedUsers[_userId] */\n      0x00\n        /* \"MyContract.sol\":1239:1246  _userId */\n      dup4\n        /* \"MyContract.sol\":1225:1247  approvedUsers[_userId] */\n      dup2\n      mstore\n      0x20\n      add\n      swap1\n      dup2\n      mstore\n      0x20\n      add\n      0x00\n      keccak256\n      0x00\n        /* \"MyContract.sol\":1225:1254  approvedUsers[_userId] = true */\n      0x0100\n      exp\n      dup2\n      sload\n      dup2\n      0xff\n      mul\n      not\n      and\n      swap1\n      dup4\n      iszero\n      iszero\n      mul\n      or\n      swap1\n      sstore\n      pop\n        /* \"MyContract.sol\":1269:1302  UserApproved(_userId, msg.sender) */\n      0xb435ccfdf94417a9bbf268346b63899f30e15fc0532649688f86a389041b2bf3\n        /* \"MyContract.sol\":1282:1289  _userId */\n      dup2\n        /* \"MyContract.sol\":1291:1301  msg.sender */\n      caller\n        /* \"MyContract.sol\":1269:1302  UserApproved(_userId, msg.sender) */\n      mload(0x40)\n      tag_57\n      swap3\n      swap2\n      swap1\n      tag_58\n      jump\t// in\n    tag_57:\n      mload(0x40)\n      dup1\n      swap2\n      sub\n      swap1\n      log1\n        /* \"MyContract.sol\":973:1309  function approveUser(uint256 _userId) public {... */\n      pop\n      jump\t// out\n        /* \"MyContract.sol\":1982:2065  function getData() public view returns (string memory) {... */\n    tag_22:\n        /* \"MyContract.sol\":2022:2035  string memory */\n      0x60\n        /* \"MyContract.sol\":2054:2058  data */\n      0x00\n        /* \"MyContract.sol\":2047:2058  return data */\n      dup1\n      sload\n      tag_60\n      swap1\n      tag_61\n      jump\t// in\n    tag_60:\n      dup1\n      0x1f\n      add\n      0x20\n      dup1\n      swap2\n      div\n      mul\n      0x20\n      add\n      mload(0x40)\n      swap1\n      dup2\n      add\n      0x40\n      mstore\n      dup1\n      swap3\n      swap2\n      swap1\n      dup2\n      dup2\n      mstore\n      0x20\n      add\n      dup3\n      dup1\n      sload\n      tag_62\n      swap1\n      tag_61\n      jump\t// in\n    tag_62:\n      dup1\n      iszero\n      tag_63\n      jumpi\n      dup1\n      0x1f\n      lt\n      tag_64\n      jumpi\n      0x0100\n      dup1\n      dup4\n      sload\n      div\n      mul\n      dup4\n      mstore\n      swap2\n      0x20\n      add\n      swap2\n      jump(tag_63)\n    tag_64:\n      dup3\n      add\n      swap2\n      swap1\n      0x00\n      mstore\n      keccak256(0x00, 0x20)\n      swap1\n    tag_65:\n      dup2\n      sload\n      dup2\n      mstore\n      swap1\n      0x01\n      add\n      swap1\n      0x20\n      add\n      dup1\n      dup4\n      gt\n      tag_65\n      jumpi\n      dup3\n      swap1\n      sub\n      0x1f\n      and\n      dup3\n      add\n      swap2\n    tag_63:\n      pop\n      pop\n      pop\n      pop\n      pop\n      swap1\n      pop\n        /* \"MyContract.sol\":1982:2065  function getData() public view returns (string memory) {... */\n      swap1\n      jump\t// out\n        /* \"MyContract.sol\":1315:1534  function setData(string memory _data) public {... */\n    tag_29:\n        /* \"MyContract.sol\":1378:1391  approvedUsers */\n      0x03\n        /* \"MyContract.sol\":1378:1412  approvedUsers[usageId(msg.sender)] */\n      0x00\n        /* \"MyContract.sol\":1392:1411  usageId(msg.sender) */\n      tag_67\n        /* \"MyContract.sol\":1400:1410  msg.sender */\n      caller\n        /* \"MyContract.sol\":1392:1399  usageId */\n      tag_47\n        /* \"MyContract.sol\":1392:1411  usageId(msg.sender) */\n      jump\t// in\n    tag_67:\n        /* \"MyContract.sol\":1378:1412  approvedUsers[usageId(msg.sender)] */\n      dup2\n      mstore\n      0x20\n      add\n      swap1\n      dup2\n      mstore\n      0x20\n      add\n      0x00\n      keccak256\n      0x00\n      swap1\n      sload\n      swap1\n      0x0100\n      exp\n      swap1\n      div\n      0xff\n      and\n        /* \"MyContract.sol\":1370:1434  require(approvedUsers[usageId(msg.sender)], \"User not approved\") */\n      tag_68\n      jumpi\n      mload(0x40)\n      0x08c379a000000000000000000000000000000000000000000000000000000000\n      dup2\n      mstore\n      0x04\n      add\n      tag_69\n      swap1\n      tag_70\n      jump\t// in\n    tag_69:\n      mload(0x40)\n      dup1\n      swap2\n      sub\n      swap1\n      revert\n    tag_68:\n        /* \"MyContract.sol\":1489:1494  _data */\n      dup1\n        /* \"MyContract.sol\":1482:1486  data */\n      0x00\n        /* \"MyContract.sol\":1482:1494  data = _data */\n      swap1\n      dup2\n      tag_71\n      swap2\n      swap1\n      tag_72\n      jump\t// in\n    tag_71:\n      pop\n        /* \"MyContract.sol\":1509:1527  DataUpdated(_data) */\n      0x70a1cfe867989ce2ae7d36e8dfa2d3f6ad43678fe220e15a59c1d503092f9413\n        /* \"MyContract.sol\":1521:1526  _data */\n      dup2\n        /* \"MyContract.sol\":1509:1527  DataUpdated(_data) */\n      mload(0x40)\n      tag_73\n      swap2\n      swap1\n      tag_24\n      jump\t// in\n    tag_73:\n      mload(0x40)\n      dup1\n      swap2\n      sub\n      swap1\n      log1\n        /* \"MyContract.sol\":1315:1534  function setData(string memory _data) public {... */\n      pop\n      jump\t// out\n        /* \"MyContract.sol\":748:967  function registerUser(string memory) public {... */\n    tag_33:\n        /* \"MyContract.sol\":802:816  uint256 userId */\n      0x00\n        /* \"MyContract.sol\":819:837  generateUniqueId() */\n      tag_75\n        /* \"MyContract.sol\":819:835  generateUniqueId */\n      tag_76\n        /* \"MyContract.sol\":819:837  generateUniqueId() */\n      jump\t// in\n    tag_75:\n        /* \"MyContract.sol\":802:837  uint256 userId = generateUniqueId() */\n      swap1\n      pop\n        /* \"MyContract.sol\":926:960  UserRegistered(userId, msg.sender) */\n      0xb442efe467d2ef30e62927a3cae0afcbc799a8a0944d8a143332e4e5e51cee5d\n        /* \"MyContract.sol\":941:947  userId */\n      dup2\n        /* \"MyContract.sol\":949:959  msg.sender */\n      caller\n        /* \"MyContract.sol\":926:960  UserRegistered(userId, msg.sender) */\n      mload(0x40)\n      tag_77\n      swap3\n      swap2\n      swap1\n      tag_58\n      jump\t// in\n    tag_77:\n      mload(0x40)\n      dup1\n      swap2\n      sub\n      swap1\n      log1\n        /* \"MyContract.sol\":792:967  {... */\n      pop\n        /* \"MyContract.sol\":748:967  function registerUser(string memory) public {... */\n      pop\n      jump\t// out\n        /* \"MyContract.sol\":83:101  string public data */\n    tag_36:\n      0x00\n      dup1\n      sload\n      tag_78\n      swap1\n      tag_61\n      jump\t// in\n    tag_78:\n      dup1\n      0x1f\n      add\n      0x20\n      dup1\n      swap2\n      div\n      mul\n      0x20\n      add\n      mload(0x40)\n      swap1\n      dup2\n      add\n      0x40\n      mstore\n      dup1\n      swap3\n      swap2\n      swap1\n      dup2\n      dup2\n      mstore\n      0x20\n      add\n      dup3\n      dup1\n      sload\n      tag_79\n      swap1\n      tag_61\n      jump\t// in\n    tag_79:\n      dup1\n      iszero\n      tag_80\n      jumpi\n      dup1\n      0x1f\n      lt\n      tag_81\n      jumpi\n      0x0100\n      dup1\n      dup4\n      sload\n      div\n      mul\n      dup4\n      mstore\n      swap2\n      0x20\n      add\n      swap2\n      jump(tag_80)\n    tag_81:\n      dup3\n      add\n      swap2\n      swap1\n      0x00\n      mstore\n      keccak256(0x00, 0x20)\n      swap1\n    tag_82:\n      dup2\n      sload\n      dup2\n      mstore\n      swap1\n      0x01\n      add\n      swap1\n      0x20\n      add\n      dup1\n      dup4\n      gt\n      tag_82\n      jumpi\n      dup3\n      swap1\n      sub\n      0x1f\n      and\n      dup3\n      add\n      swap2\n    tag_80:\n      pop\n      pop\n      pop\n      pop\n      pop\n      dup2\n      jump\t// out\n        /* \"MyContract.sol\":1816:1903  function getOwner() public view returns (address) {... */\n    tag_40:\n        /* \"MyContract.sol\":1857:1864  address */\n      0x00\n        /* \"MyContract.sol\":1883:1896  contractOwner */\n      0x02\n      0x00\n      swap1\n      sload\n      swap1\n      0x0100\n      exp\n      swap1\n      div\n      0xffffffffffffffffffffffffffffffffffffffff\n      and\n        /* \"MyContract.sol\":1876:1896  return contractOwner */\n      swap1\n      pop\n        /* \"MyContract.sol\":1816:1903  function getOwner() public view returns (address) {... */\n      swap1\n      jump\t// out\n        /* \"MyContract.sol\":1540:1810  function usageId(address userAddress) public pure returns (uint256) {... */\n    tag_47:\n        /* \"MyContract.sol\":1599:1606  uint256 */\n      0x00\n        /* \"MyContract.sol\":1789:1800  userAddress */\n      dup2\n        /* \"MyContract.sol\":1772:1801  abi.encodePacked(userAddress) */\n      add(0x20, mload(0x40))\n      tag_85\n      swap2\n      swap1\n      tag_86\n      jump\t// in\n    tag_85:\n      mload(0x40)\n      0x20\n      dup2\n      dup4\n      sub\n      sub\n      dup2\n      mstore\n      swap1\n      0x40\n      mstore\n        /* \"MyContract.sol\":1762:1802  keccak256(abi.encodePacked(userAddress)) */\n      dup1\n      mload\n      swap1\n      0x20\n      add\n      keccak256\n        /* \"MyContract.sol\":1754:1803  uint256(keccak256(abi.encodePacked(userAddress))) */\n      0x00\n      shr\n        /* \"MyContract.sol\":1747:1803  return uint256(keccak256(abi.encodePacked(userAddress))) */\n      swap1\n      pop\n        /* \"MyContract.sol\":1540:1810  function usageId(address userAddress) public pure returns (uint256) {... */\n      swap2\n      swap1\n      pop\n      jump\t// out\n        /* \"MyContract.sol\":589:742  function generateUniqueId() private returns (uint256) {... */\n    tag_76:\n        /* \"MyContract.sol\":634:641  uint256 */\n      0x00\n        /* \"MyContract.sol\":653:669  uint256 uniqueId */\n      dup1\n        /* \"MyContract.sol\":672:685  userIdCounter */\n      sload(0x01)\n        /* \"MyContract.sol\":653:685  uint256 uniqueId = userIdCounter */\n      swap1\n      pop\n        /* \"MyContract.sol\":695:708  userIdCounter */\n      0x01\n      0x00\n        /* \"MyContract.sol\":695:710  userIdCounter++ */\n      dup2\n      sload\n      dup1\n      swap3\n      swap2\n      swap1\n      tag_88\n      swap1\n      tag_89\n      jump\t// in\n    tag_88:\n      swap2\n      swap1\n      pop\n      sstore\n      pop\n        /* \"MyContract.sol\":727:735  uniqueId */\n      dup1\n        /* \"MyContract.sol\":720:735  return uniqueId */\n      swap2\n      pop\n      pop\n        /* \"MyContract.sol\":589:742  function generateUniqueId() private returns (uint256) {... */\n      swap1\n      jump\t// out\n        /* \"#utility.yul\":7:82   */\n    tag_90:\n        /* \"#utility.yul\":40:46   */\n      0x00\n        /* \"#utility.yul\":73:75   */\n      0x40\n        /* \"#utility.yul\":67:76   */\n      mload\n        /* \"#utility.yul\":57:76   */\n      swap1\n      pop\n        /* \"#utility.yul\":7:82   */\n      swap1\n      jump\t// out\n        /* \"#utility.yul\":88:205   */\n    tag_91:\n        /* \"#utility.yul\":197:198   */\n      0x00\n        /* \"#utility.yul\":194:195   */\n      dup1\n        /* \"#utility.yul\":187:199   */\n      revert\n        /* \"#utility.yul\":211:328   */\n    tag_92:\n        /* \"#utility.yul\":320:321   */\n      0x00\n        /* \"#utility.yul\":317:318   */\n      dup1\n        /* \"#utility.yul\":310:322   */\n      revert\n        /* \"#utility.yul\":334:411   */\n    tag_93:\n        /* \"#utility.yul\":371:378   */\n      0x00\n        /* \"#utility.yul\":400:405   */\n      dup2\n        /* \"#utility.yul\":389:405   */\n      swap1\n      pop\n        /* \"#utility.yul\":334:411   */\n      swap2\n      swap1\n      pop\n      jump\t// out\n        /* \"#utility.yul\":417:539   */\n    tag_94:\n        /* \"#utility.yul\":490:514   */\n      tag_149\n        /* \"#utility.yul\":508:513   */\n      dup2\n        /* \"#utility.yul\":490:514   */\n      tag_93\n      jump\t// in\n    tag_149:\n        /* \"#utility.yul\":483:488   */\n      dup2\n        /* \"#utility.yul\":480:515   */\n      eq\n        /* \"#utility.yul\":470:533   */\n      tag_150\n      jumpi\n        /* \"#utility.yul\":529:530   */\n      0x00\n        /* \"#utility.yul\":526:527   */\n      dup1\n        /* \"#utility.yul\":519:531   */\n      revert\n        /* \"#utility.yul\":470:533   */\n    tag_150:\n        /* \"#utility.yul\":417:539   */\n      pop\n      jump\t// out\n        /* \"#utility.yul\":545:684   */\n    tag_95:\n        /* \"#utility.yul\":591:596   */\n      0x00\n        /* \"#utility.yul\":629:635   */\n      dup2\n        /* \"#utility.yul\":616:636   */\n      calldataload\n        /* \"#utility.yul\":607:636   */\n      swap1\n      pop\n        /* \"#utility.yul\":645:678   */\n      tag_152\n        /* \"#utility.yul\":672:677   */\n      dup2\n        /* \"#utility.yul\":645:678   */\n      tag_94\n      jump\t// in\n    tag_152:\n        /* \"#utility.yul\":545:684   */\n      swap3\n      swap2\n      pop\n      pop\n      jump\t// out\n        /* \"#utility.yul\":690:1019   */\n    tag_18:\n        /* \"#utility.yul\":749:755   */\n      0x00\n        /* \"#utility.yul\":798:800   */\n      0x20\n        /* \"#utility.yul\":786:795   */\n      dup3\n        /* \"#utility.yul\":777:784   */\n      dup5\n        /* \"#utility.yul\":773:796   */\n      sub\n        /* \"#utility.yul\":769:801   */\n      slt\n        /* \"#utility.yul\":766:885   */\n      iszero\n      tag_154\n      jumpi\n        /* \"#utility.yul\":804:883   */\n      tag_155\n      tag_91\n      jump\t// in\n    tag_155:\n        /* \"#utility.yul\":766:885   */\n    tag_154:\n        /* \"#utility.yul\":924:925   */\n      0x00\n        /* \"#utility.yul\":949:1002   */\n      tag_156\n        /* \"#utility.yul\":994:1001   */\n      dup5\n        /* \"#utility.yul\":985:991   */\n      dup3\n        /* \"#utility.yul\":974:983   */\n      dup6\n        /* \"#utility.yul\":970:992   */\n      add\n        /* \"#utility.yul\":949:1002   */\n      tag_95\n      jump\t// in\n    tag_156:\n        /* \"#utility.yul\":939:1002   */\n      swap2\n      pop\n        /* \"#utility.yul\":895:1012   */\n      pop\n        /* \"#utility.yul\":690:1019   */\n      swap3\n      swap2\n      pop\n      pop\n      jump\t// out\n        /* \"#utility.yul\":1025:1124   */\n    tag_96:\n        /* \"#utility.yul\":1077:1083   */\n      0x00\n        /* \"#utility.yul\":1111:1116   */\n      dup2\n        /* \"#utility.yul\":1105:1117   */\n      mload\n        /* \"#utility.yul\":1095:1117   */\n      swap1\n      pop\n        /* \"#utility.yul\":1025:1124   */\n      swap2\n      swap1\n      pop\n      jump\t// out\n        /* \"#utility.yul\":1130:1299   */\n    tag_97:\n        /* \"#utility.yul\":1214:1225   */\n      0x00\n        /* \"#utility.yul\":1248:1254   */\n      dup3\n        /* \"#utility.yul\":1243:1246   */\n      dup3\n        /* \"#utility.yul\":1236:1255   */\n      mstore\n        /* \"#utility.yul\":1288:1292   */\n      0x20\n        /* \"#utility.yul\":1283:1286   */\n      dup3\n        /* \"#utility.yul\":1279:1293   */\n      add\n        /* \"#utility.yul\":1264:1293   */\n      swap1\n      pop\n        /* \"#utility.yul\":1130:1299   */\n      swap3\n      swap2\n      pop\n      pop\n      jump\t// out\n        /* \"#utility.yul\":1305:1551   */\n    tag_98:\n        /* \"#utility.yul\":1386:1387   */\n      0x00\n        /* \"#utility.yul\":1396:1509   */\n    tag_160:\n        /* \"#utility.yul\":1410:1416   */\n      dup4\n        /* \"#utility.yul\":1407:1408   */\n      dup2\n        /* \"#utility.yul\":1404:1417   */\n      lt\n        /* \"#utility.yul\":1396:1509   */\n      iszero\n      tag_162\n      jumpi\n        /* \"#utility.yul\":1495:1496   */\n      dup1\n        /* \"#utility.yul\":1490:1493   */\n      dup3\n        /* \"#utility.yul\":1486:1497   */\n      add\n        /* \"#utility.yul\":1480:1498   */\n      mload\n        /* \"#utility.yul\":1476:1477   */\n      dup2\n        /* \"#utility.yul\":1471:1474   */\n      dup5\n        /* \"#utility.yul\":1467:1478   */\n      add\n        /* \"#utility.yul\":1460:1499   */\n      mstore\n        /* \"#utility.yul\":1432:1434   */\n      0x20\n        /* \"#utility.yul\":1429:1430   */\n      dup2\n        /* \"#utility.yul\":1425:1435   */\n      add\n        /* \"#utility.yul\":1420:1435   */\n      swap1\n      pop\n        /* \"#utility.yul\":1396:1509   */\n      jump(tag_160)\n    tag_162:\n        /* \"#utility.yul\":1543:1544   */\n      0x00\n        /* \"#utility.yul\":1534:1540   */\n      dup5\n        /* \"#utility.yul\":1529:1532   */\n      dup5\n        /* \"#utility.yul\":1525:1541   */\n      add\n        /* \"#utility.yul\":1518:1545   */\n      mstore\n        /* \"#utility.yul\":1367:1551   */\n      pop\n        /* \"#utility.yul\":1305:1551   */\n      pop\n      pop\n      pop\n      jump\t// out\n        /* \"#utility.yul\":1557:1659   */\n    tag_99:\n        /* \"#utility.yul\":1598:1604   */\n      0x00\n        /* \"#utility.yul\":1649:1651   */\n      0x1f\n        /* \"#utility.yul\":1645:1652   */\n      not\n        /* \"#utility.yul\":1640:1642   */\n      0x1f\n        /* \"#utility.yul\":1633:1638   */\n      dup4\n        /* \"#utility.yul\":1629:1643   */\n      add\n        /* \"#utility.yul\":1625:1653   */\n      and\n        /* \"#utility.yul\":1615:1653   */\n      swap1\n      pop\n        /* \"#utility.yul\":1557:1659   */\n      swap2\n      swap1\n      pop\n      jump\t// out\n        /* \"#utility.yul\":1665:2042   */\n    tag_100:\n        /* \"#utility.yul\":1753:1756   */\n      0x00\n        /* \"#utility.yul\":1781:1820   */\n      tag_165\n        /* \"#utility.yul\":1814:1819   */\n      dup3\n        /* \"#utility.yul\":1781:1820   */\n      tag_96\n      jump\t// in\n    tag_165:\n        /* \"#utility.yul\":1836:1907   */\n      tag_166\n        /* \"#utility.yul\":1900:1906   */\n      dup2\n        /* \"#utility.yul\":1895:1898   */\n      dup6\n        /* \"#utility.yul\":1836:1907   */\n      tag_97\n      jump\t// in\n    tag_166:\n        /* \"#utility.yul\":1829:1907   */\n      swap4\n      pop\n        /* \"#utility.yul\":1916:1981   */\n      tag_167\n        /* \"#utility.yul\":1974:1980   */\n      dup2\n        /* \"#utility.yul\":1969:1972   */\n      dup6\n        /* \"#utility.yul\":1962:1966   */\n      0x20\n        /* \"#utility.yul\":1955:1960   */\n      dup7\n        /* \"#utility.yul\":1951:1967   */\n      add\n        /* \"#utility.yul\":1916:1981   */\n      tag_98\n      jump\t// in\n    tag_167:\n        /* \"#utility.yul\":2006:2035   */\n      tag_168\n        /* \"#utility.yul\":2028:2034   */\n      dup2\n        /* \"#utility.yul\":2006:2035   */\n      tag_99\n      jump\t// in\n    tag_168:\n        /* \"#utility.yul\":2001:2004   */\n      dup5\n        /* \"#utility.yul\":1997:2036   */\n      add\n        /* \"#utility.yul\":1990:2036   */\n      swap2\n      pop\n        /* \"#utility.yul\":1757:2042   */\n      pop\n        /* \"#utility.yul\":1665:2042   */\n      swap3\n      swap2\n      pop\n      pop\n      jump\t// out\n        /* \"#utility.yul\":2048:2361   */\n    tag_24:\n        /* \"#utility.yul\":2161:2165   */\n      0x00\n        /* \"#utility.yul\":2199:2201   */\n      0x20\n        /* \"#utility.yul\":2188:2197   */\n      dup3\n        /* \"#utility.yul\":2184:2202   */\n      add\n        /* \"#utility.yul\":2176:2202   */\n      swap1\n      pop\n        /* \"#utility.yul\":2248:2257   */\n      dup2\n        /* \"#utility.yul\":2242:2246   */\n      dup2\n        /* \"#utility.yul\":2238:2258   */\n      sub\n        /* \"#utility.yul\":2234:2235   */\n      0x00\n        /* \"#utility.yul\":2223:2232   */\n      dup4\n        /* \"#utility.yul\":2219:2236   */\n      add\n        /* \"#utility.yul\":2212:2259   */\n      mstore\n        /* \"#utility.yul\":2276:2354   */\n      tag_170\n        /* \"#utility.yul\":2349:2353   */\n      dup2\n        /* \"#utility.yul\":2340:2346   */\n      dup5\n        /* \"#utility.yul\":2276:2354   */\n      tag_100\n      jump\t// in\n    tag_170:\n        /* \"#utility.yul\":2268:2354   */\n      swap1\n      pop\n        /* \"#utility.yul\":2048:2361   */\n      swap3\n      swap2\n      pop\n      pop\n      jump\t// out\n        /* \"#utility.yul\":2367:2484   */\n    tag_101:\n        /* \"#utility.yul\":2476:2477   */\n      0x00\n        /* \"#utility.yul\":2473:2474   */\n      dup1\n        /* \"#utility.yul\":2466:2478   */\n      revert\n        /* \"#utility.yul\":2490:2607   */\n    tag_102:\n        /* \"#utility.yul\":2599:2600   */\n      0x00\n        /* \"#utility.yul\":2596:2597   */\n      dup1\n        /* \"#utility.yul\":2589:2601   */\n      revert\n        /* \"#utility.yul\":2613:2793   */\n    tag_103:\n        /* \"#utility.yul\":2661:2738   */\n      0x4e487b7100000000000000000000000000000000000000000000000000000000\n        /* \"#utility.yul\":2658:2659   */\n      0x00\n        /* \"#utility.yul\":2651:2739   */\n      mstore\n        /* \"#utility.yul\":2758:2762   */\n      0x41\n        /* \"#utility.yul\":2755:2756   */\n      0x04\n        /* \"#utility.yul\":2748:2763   */\n      mstore\n        /* \"#utility.yul\":2782:2786   */\n      0x24\n        /* \"#utility.yul\":2779:2780   */\n      0x00\n        /* \"#utility.yul\":2772:2787   */\n      revert\n        /* \"#utility.yul\":2799:3080   */\n    tag_104:\n        /* \"#utility.yul\":2882:2909   */\n      tag_175\n        /* \"#utility.yul\":2904:2908   */\n      dup3\n        /* \"#utility.yul\":2882:2909   */\n      tag_99\n      jump\t// in\n    tag_175:\n        /* \"#utility.yul\":2874:2880   */\n      dup2\n        /* \"#utility.yul\":2870:2910   */\n      add\n        /* \"#utility.yul\":3012:3018   */\n      dup2\n        /* \"#utility.yul\":3000:3010   */\n      dup2\n        /* \"#utility.yul\":2997:3019   */\n      lt\n        /* \"#utility.yul\":2976:2994   */\n      0xffffffffffffffff\n        /* \"#utility.yul\":2964:2974   */\n      dup3\n        /* \"#utility.yul\":2961:2995   */\n      gt\n        /* \"#utility.yul\":2958:3020   */\n      or\n        /* \"#utility.yul\":2955:3043   */\n      iszero\n      tag_176\n      jumpi\n        /* \"#utility.yul\":3023:3041   */\n      tag_177\n      tag_103\n      jump\t// in\n    tag_177:\n        /* \"#utility.yul\":2955:3043   */\n    tag_176:\n        /* \"#utility.yul\":3063:3073   */\n      dup1\n        /* \"#utility.yul\":3059:3061   */\n      0x40\n        /* \"#utility.yul\":3052:3074   */\n      mstore\n        /* \"#utility.yul\":2842:3080   */\n      pop\n        /* \"#utility.yul\":2799:3080   */\n      pop\n      pop\n      jump\t// out\n        /* \"#utility.yul\":3086:3215   */\n    tag_105:\n        /* \"#utility.yul\":3120:3126   */\n      0x00\n        /* \"#utility.yul\":3147:3167   */\n      tag_179\n      tag_90\n      jump\t// in\n    tag_179:\n        /* \"#utility.yul\":3137:3167   */\n      swap1\n      pop\n        /* \"#utility.yul\":3176:3209   */\n      tag_180\n        /* \"#utility.yul\":3204:3208   */\n      dup3\n        /* \"#utility.yul\":3196:3202   */\n      dup3\n        /* \"#utility.yul\":3176:3209   */\n      tag_104\n      jump\t// in\n    tag_180:\n        /* \"#utility.yul\":3086:3215   */\n      swap2\n      swap1\n      pop\n      jump\t// out\n        /* \"#utility.yul\":3221:3529   */\n    tag_106:\n        /* \"#utility.yul\":3283:3287   */\n      0x00\n        /* \"#utility.yul\":3373:3391   */\n      0xffffffffffffffff\n        /* \"#utility.yul\":3365:3371   */\n      dup3\n        /* \"#utility.yul\":3362:3392   */\n      gt\n        /* \"#utility.yul\":3359:3415   */\n      iszero\n      tag_182\n      jumpi\n        /* \"#utility.yul\":3395:3413   */\n      tag_183\n      tag_103\n      jump\t// in\n    tag_183:\n        /* \"#utility.yul\":3359:3415   */\n    tag_182:\n        /* \"#utility.yul\":3433:3462   */\n      tag_184\n        /* \"#utility.yul\":3455:3461   */\n      dup3\n        /* \"#utility.yul\":3433:3462   */\n      tag_99\n      jump\t// in\n    tag_184:\n        /* \"#utility.yul\":3425:3462   */\n      swap1\n      pop\n        /* \"#utility.yul\":3517:3521   */\n      0x20\n        /* \"#utility.yul\":3511:3515   */\n      dup2\n        /* \"#utility.yul\":3507:3522   */\n      add\n        /* \"#utility.yul\":3499:3522   */\n      swap1\n      pop\n        /* \"#utility.yul\":3221:3529   */\n      swap2\n      swap1\n      pop\n      jump\t// out\n        /* \"#utility.yul\":3535:3681   */\n    tag_107:\n        /* \"#utility.yul\":3632:3638   */\n      dup3\n        /* \"#utility.yul\":3627:3630   */\n      dup2\n        /* \"#utility.yul\":3622:3625   */\n      dup4\n        /* \"#utility.yul\":3609:3639   */\n      calldatacopy\n        /* \"#utility.yul\":3673:3674   */\n      0x00\n        /* \"#utility.yul\":3664:3670   */\n      dup4\n        /* \"#utility.yul\":3659:3662   */\n      dup4\n        /* \"#utility.yul\":3655:3671   */\n      add\n        /* \"#utility.yul\":3648:3675   */\n      mstore\n        /* \"#utility.yul\":3535:3681   */\n      pop\n      pop\n      pop\n      jump\t// out\n        /* \"#utility.yul\":3687:4112   */\n    tag_108:\n        /* \"#utility.yul\":3765:3770   */\n      0x00\n        /* \"#utility.yul\":3790:3856   */\n      tag_187\n        /* \"#utility.yul\":3806:3855   */\n      tag_188\n        /* \"#utility.yul\":3848:3854   */\n      dup5\n        /* \"#utility.yul\":3806:3855   */\n      tag_106\n      jump\t// in\n    tag_188:\n        /* \"#utility.yul\":3790:3856   */\n      tag_105\n      jump\t// in\n    tag_187:\n        /* \"#utility.yul\":3781:3856   */\n      swap1\n      pop\n        /* \"#utility.yul\":3879:3885   */\n      dup3\n        /* \"#utility.yul\":3872:3877   */\n      dup2\n        /* \"#utility.yul\":3865:3886   */\n      mstore\n        /* \"#utility.yul\":3917:3921   */\n      0x20\n        /* \"#utility.yul\":3910:3915   */\n      dup2\n        /* \"#utility.yul\":3906:3922   */\n      add\n        /* \"#utility.yul\":3955:3958   */\n      dup5\n        /* \"#utility.yul\":3946:3952   */\n      dup5\n        /* \"#utility.yul\":3941:3944   */\n      dup5\n        /* \"#utility.yul\":3937:3953   */\n      add\n        /* \"#utility.yul\":3934:3959   */\n      gt\n        /* \"#utility.yul\":3931:4043   */\n      iszero\n      tag_189\n      jumpi\n        /* \"#utility.yul\":3962:4041   */\n      tag_190\n      tag_102\n      jump\t// in\n    tag_190:\n        /* \"#utility.yul\":3931:4043   */\n    tag_189:\n        /* \"#utility.yul\":4052:4106   */\n      tag_191\n        /* \"#utility.yul\":4099:4105   */\n      dup5\n        /* \"#utility.yul\":4094:4097   */\n      dup3\n        /* \"#utility.yul\":4089:4092   */\n      dup6\n        /* \"#utility.yul\":4052:4106   */\n      tag_107\n      jump\t// in\n    tag_191:\n        /* \"#utility.yul\":3771:4112   */\n      pop\n        /* \"#utility.yul\":3687:4112   */\n      swap4\n      swap3\n      pop\n      pop\n      pop\n      jump\t// out\n        /* \"#utility.yul\":4132:4472   */\n    tag_109:\n        /* \"#utility.yul\":4188:4193   */\n      0x00\n        /* \"#utility.yul\":4237:4240   */\n      dup3\n        /* \"#utility.yul\":4230:4234   */\n      0x1f\n        /* \"#utility.yul\":4222:4228   */\n      dup4\n        /* \"#utility.yul\":4218:4235   */\n      add\n        /* \"#utility.yul\":4214:4241   */\n      slt\n        /* \"#utility.yul\":4204:4326   */\n      tag_193\n      jumpi\n        /* \"#utility.yul\":4245:4324   */\n      tag_194\n      tag_101\n      jump\t// in\n    tag_194:\n        /* \"#utility.yul\":4204:4326   */\n    tag_193:\n        /* \"#utility.yul\":4362:4368   */\n      dup2\n        /* \"#utility.yul\":4349:4369   */\n      calldataload\n        /* \"#utility.yul\":4387:4466   */\n      tag_195\n        /* \"#utility.yul\":4462:4465   */\n      dup5\n        /* \"#utility.yul\":4454:4460   */\n      dup3\n        /* \"#utility.yul\":4447:4451   */\n      0x20\n        /* \"#utility.yul\":4439:4445   */\n      dup7\n        /* \"#utility.yul\":4435:4452   */\n      add\n        /* \"#utility.yul\":4387:4466   */\n      tag_108\n      jump\t// in\n    tag_195:\n        /* \"#utility.yul\":4378:4466   */\n      swap2\n      pop\n        /* \"#utility.yul\":4194:4472   */\n      pop\n        /* \"#utility.yul\":4132:4472   */\n      swap3\n      swap2\n      pop\n      pop\n      jump\t// out\n        /* \"#utility.yul\":4478:4987   */\n    tag_28:\n        /* \"#utility.yul\":4547:4553   */\n      0x00\n        /* \"#utility.yul\":4596:4598   */\n      0x20\n        /* \"#utility.yul\":4584:4593   */\n      dup3\n        /* \"#utility.yul\":4575:4582   */\n      dup5\n        /* \"#utility.yul\":4571:4594   */\n      sub\n        /* \"#utility.yul\":4567:4599   */\n      slt\n        /* \"#utility.yul\":4564:4683   */\n      iszero\n      tag_197\n      jumpi\n        /* \"#utility.yul\":4602:4681   */\n      tag_198\n      tag_91\n      jump\t// in\n    tag_198:\n        /* \"#utility.yul\":4564:4683   */\n    tag_197:\n        /* \"#utility.yul\":4750:4751   */\n      0x00\n        /* \"#utility.yul\":4739:4748   */\n      dup3\n        /* \"#utility.yul\":4735:4752   */\n      add\n        /* \"#utility.yul\":4722:4753   */\n      calldataload\n        /* \"#utility.yul\":4780:4798   */\n      0xffffffffffffffff\n        /* \"#utility.yul\":4772:4778   */\n      dup2\n        /* \"#utility.yul\":4769:4799   */\n      gt\n        /* \"#utility.yul\":4766:4883   */\n      iszero\n      tag_199\n      jumpi\n        /* \"#utility.yul\":4802:4881   */\n      tag_200\n      tag_92\n      jump\t// in\n    tag_200:\n        /* \"#utility.yul\":4766:4883   */\n    tag_199:\n        /* \"#utility.yul\":4907:4970   */\n      tag_201\n        /* \"#utility.yul\":4962:4969   */\n      dup5\n        /* \"#utility.yul\":4953:4959   */\n      dup3\n        /* \"#utility.yul\":4942:4951   */\n      dup6\n        /* \"#utility.yul\":4938:4960   */\n      add\n        /* \"#utility.yul\":4907:4970   */\n      tag_109\n      jump\t// in\n    tag_201:\n        /* \"#utility.yul\":4897:4970   */\n      swap2\n      pop\n        /* \"#utility.yul\":4693:4980   */\n      pop\n        /* \"#utility.yul\":4478:4987   */\n      swap3\n      swap2\n      pop\n      pop\n      jump\t// out\n        /* \"#utility.yul\":4993:5119   */\n    tag_110:\n        /* \"#utility.yul\":5030:5037   */\n      0x00\n        /* \"#utility.yul\":5070:5112   */\n      0xffffffffffffffffffffffffffffffffffffffff\n        /* \"#utility.yul\":5063:5068   */\n      dup3\n        /* \"#utility.yul\":5059:5113   */\n      and\n        /* \"#utility.yul\":5048:5113   */\n      swap1\n      pop\n        /* \"#utility.yul\":4993:5119   */\n      swap2\n      swap1\n      pop\n      jump\t// out\n        /* \"#utility.yul\":5125:5221   */\n    tag_111:\n        /* \"#utility.yul\":5162:5169   */\n      0x00\n        /* \"#utility.yul\":5191:5215   */\n      tag_204\n        /* \"#utility.yul\":5209:5214   */\n      dup3\n        /* \"#utility.yul\":5191:5215   */\n      tag_110\n      jump\t// in\n    tag_204:\n        /* \"#utility.yul\":5180:5215   */\n      swap1\n      pop\n        /* \"#utility.yul\":5125:5221   */\n      swap2\n      swap1\n      pop\n      jump\t// out\n        /* \"#utility.yul\":5227:5345   */\n    tag_112:\n        /* \"#utility.yul\":5314:5338   */\n      tag_206\n        /* \"#utility.yul\":5332:5337   */\n      dup2\n        /* \"#utility.yul\":5314:5338   */\n      tag_111\n      jump\t// in\n    tag_206:\n        /* \"#utility.yul\":5309:5312   */\n      dup3\n        /* \"#utility.yul\":5302:5339   */\n      mstore\n        /* \"#utility.yul\":5227:5345   */\n      pop\n      pop\n      jump\t// out\n        /* \"#utility.yul\":5351:5573   */\n    tag_42:\n        /* \"#utility.yul\":5444:5448   */\n      0x00\n        /* \"#utility.yul\":5482:5484   */\n      0x20\n        /* \"#utility.yul\":5471:5480   */\n      dup3\n        /* \"#utility.yul\":5467:5485   */\n      add\n        /* \"#utility.yul\":5459:5485   */\n      swap1\n      pop\n        /* \"#utility.yul\":5495:5566   */\n      tag_208\n        /* \"#utility.yul\":5563:5564   */\n      0x00\n        /* \"#utility.yul\":5552:5561   */\n      dup4\n        /* \"#utility.yul\":5548:5565   */\n      add\n        /* \"#utility.yul\":5539:5545   */\n      dup5\n        /* \"#utility.yul\":5495:5566   */\n      tag_112\n      jump\t// in\n    tag_208:\n        /* \"#utility.yul\":5351:5573   */\n      swap3\n      swap2\n      pop\n      pop\n      jump\t// out\n        /* \"#utility.yul\":5579:5701   */\n    tag_113:\n        /* \"#utility.yul\":5652:5676   */\n      tag_210\n        /* \"#utility.yul\":5670:5675   */\n      dup2\n        /* \"#utility.yul\":5652:5676   */\n      tag_111\n      jump\t// in\n    tag_210:\n        /* \"#utility.yul\":5645:5650   */\n      dup2\n        /* \"#utility.yul\":5642:5677   */\n      eq\n        /* \"#utility.yul\":5632:5695   */\n      tag_211\n      jumpi\n        /* \"#utility.yul\":5691:5692   */\n      0x00\n        /* \"#utility.yul\":5688:5689   */\n      dup1\n        /* \"#utility.yul\":5681:5693   */\n      revert\n        /* \"#utility.yul\":5632:5695   */\n    tag_211:\n        /* \"#utility.yul\":5579:5701   */\n      pop\n      jump\t// out\n        /* \"#utility.yul\":5707:5846   */\n    tag_114:\n        /* \"#utility.yul\":5753:5758   */\n      0x00\n        /* \"#utility.yul\":5791:5797   */\n      dup2\n        /* \"#utility.yul\":5778:5798   */\n      calldataload\n        /* \"#utility.yul\":5769:5798   */\n      swap1\n      pop\n        /* \"#utility.yul\":5807:5840   */\n      tag_213\n        /* \"#utility.yul\":5834:5839   */\n      dup2\n        /* \"#utility.yul\":5807:5840   */\n      tag_113\n      jump\t// in\n    tag_213:\n        /* \"#utility.yul\":5707:5846   */\n      swap3\n      swap2\n      pop\n      pop\n      jump\t// out\n        /* \"#utility.yul\":5852:6181   */\n    tag_46:\n        /* \"#utility.yul\":5911:5917   */\n      0x00\n        /* \"#utility.yul\":5960:5962   */\n      0x20\n        /* \"#utility.yul\":5948:5957   */\n      dup3\n        /* \"#utility.yul\":5939:5946   */\n      dup5\n        /* \"#utility.yul\":5935:5958   */\n      sub\n        /* \"#utility.yul\":5931:5963   */\n      slt\n        /* \"#utility.yul\":5928:6047   */\n      iszero\n      tag_215\n      jumpi\n        /* \"#utility.yul\":5966:6045   */\n      tag_216\n      tag_91\n      jump\t// in\n    tag_216:\n        /* \"#utility.yul\":5928:6047   */\n    tag_215:\n        /* \"#utility.yul\":6086:6087   */\n      0x00\n        /* \"#utility.yul\":6111:6164   */\n      tag_217\n        /* \"#utility.yul\":6156:6163   */\n      dup5\n        /* \"#utility.yul\":6147:6153   */\n      dup3\n        /* \"#utility.yul\":6136:6145   */\n      dup6\n        /* \"#utility.yul\":6132:6154   */\n      add\n        /* \"#utility.yul\":6111:6164   */\n      tag_114\n      jump\t// in\n    tag_217:\n        /* \"#utility.yul\":6101:6164   */\n      swap2\n      pop\n        /* \"#utility.yul\":6057:6174   */\n      pop\n        /* \"#utility.yul\":5852:6181   */\n      swap3\n      swap2\n      pop\n      pop\n      jump\t// out\n        /* \"#utility.yul\":6187:6305   */\n    tag_115:\n        /* \"#utility.yul\":6274:6298   */\n      tag_219\n        /* \"#utility.yul\":6292:6297   */\n      dup2\n        /* \"#utility.yul\":6274:6298   */\n      tag_93\n      jump\t// in\n    tag_219:\n        /* \"#utility.yul\":6269:6272   */\n      dup3\n        /* \"#utility.yul\":6262:6299   */\n      mstore\n        /* \"#utility.yul\":6187:6305   */\n      pop\n      pop\n      jump\t// out\n        /* \"#utility.yul\":6311:6533   */\n    tag_49:\n        /* \"#utility.yul\":6404:6408   */\n      0x00\n        /* \"#utility.yul\":6442:6444   */\n      0x20\n        /* \"#utility.yul\":6431:6440   */\n      dup3\n        /* \"#utility.yul\":6427:6445   */\n      add\n        /* \"#utility.yul\":6419:6445   */\n      swap1\n      pop\n        /* \"#utility.yul\":6455:6526   */\n      tag_221\n        /* \"#utility.yul\":6523:6524   */\n      0x00\n        /* \"#utility.yul\":6512:6521   */\n      dup4\n        /* \"#utility.yul\":6508:6525   */\n      add\n        /* \"#utility.yul\":6499:6505   */\n      dup5\n        /* \"#utility.yul\":6455:6526   */\n      tag_115\n      jump\t// in\n    tag_221:\n        /* \"#utility.yul\":6311:6533   */\n      swap3\n      swap2\n      pop\n      pop\n      jump\t// out\n        /* \"#utility.yul\":6539:6721   */\n    tag_116:\n        /* \"#utility.yul\":6679:6713   */\n      0x4f6e6c7920746865206f776e65722063616e20617070726f7665207573657273\n        /* \"#utility.yul\":6675:6676   */\n      0x00\n        /* \"#utility.yul\":6667:6673   */\n      dup3\n        /* \"#utility.yul\":6663:6677   */\n      add\n        /* \"#utility.yul\":6656:6714   */\n      mstore\n        /* \"#utility.yul\":6539:6721   */\n      pop\n      jump\t// out\n        /* \"#utility.yul\":6727:7093   */\n    tag_117:\n        /* \"#utility.yul\":6869:6872   */\n      0x00\n        /* \"#utility.yul\":6890:6957   */\n      tag_224\n        /* \"#utility.yul\":6954:6956   */\n      0x20\n        /* \"#utility.yul\":6949:6952   */\n      dup4\n        /* \"#utility.yul\":6890:6957   */\n      tag_97\n      jump\t// in\n    tag_224:\n        /* \"#utility.yul\":6883:6957   */\n      swap2\n      pop\n        /* \"#utility.yul\":6966:7059   */\n      tag_225\n        /* \"#utility.yul\":7055:7058   */\n      dup3\n        /* \"#utility.yul\":6966:7059   */\n      tag_116\n      jump\t// in\n    tag_225:\n        /* \"#utility.yul\":7084:7086   */\n      0x20\n        /* \"#utility.yul\":7079:7082   */\n      dup3\n        /* \"#utility.yul\":7075:7087   */\n      add\n        /* \"#utility.yul\":7068:7087   */\n      swap1\n      pop\n        /* \"#utility.yul\":6727:7093   */\n      swap2\n      swap1\n      pop\n      jump\t// out\n        /* \"#utility.yul\":7099:7518   */\n    tag_53:\n        /* \"#utility.yul\":7265:7269   */\n      0x00\n        /* \"#utility.yul\":7303:7305   */\n      0x20\n        /* \"#utility.yul\":7292:7301   */\n      dup3\n        /* \"#utility.yul\":7288:7306   */\n      add\n        /* \"#utility.yul\":7280:7306   */\n      swap1\n      pop\n        /* \"#utility.yul\":7352:7361   */\n      dup2\n        /* \"#utility.yul\":7346:7350   */\n      dup2\n        /* \"#utility.yul\":7342:7362   */\n      sub\n        /* \"#utility.yul\":7338:7339   */\n      0x00\n        /* \"#utility.yul\":7327:7336   */\n      dup4\n        /* \"#utility.yul\":7323:7340   */\n      add\n        /* \"#utility.yul\":7316:7363   */\n      mstore\n        /* \"#utility.yul\":7380:7511   */\n      tag_227\n        /* \"#utility.yul\":7506:7510   */\n      dup2\n        /* \"#utility.yul\":7380:7511   */\n      tag_117\n      jump\t// in\n    tag_227:\n        /* \"#utility.yul\":7372:7511   */\n      swap1\n      pop\n        /* \"#utility.yul\":7099:7518   */\n      swap2\n      swap1\n      pop\n      jump\t// out\n        /* \"#utility.yul\":7524:7698   */\n    tag_118:\n        /* \"#utility.yul\":7664:7690   */\n      0x5573657220697320616c726561647920617070726f7665640000000000000000\n        /* \"#utility.yul\":7660:7661   */\n      0x00\n        /* \"#utility.yul\":7652:7658   */\n      dup3\n        /* \"#utility.yul\":7648:7662   */\n      add\n        /* \"#utility.yul\":7641:7691   */\n      mstore\n        /* \"#utility.yul\":7524:7698   */\n      pop\n      jump\t// out\n        /* \"#utility.yul\":7704:8070   */\n    tag_119:\n        /* \"#utility.yul\":7846:7849   */\n      0x00\n        /* \"#utility.yul\":7867:7934   */\n      tag_230\n        /* \"#utility.yul\":7931:7933   */\n      0x18\n        /* \"#utility.yul\":7926:7929   */\n      dup4\n        /* \"#utility.yul\":7867:7934   */\n      tag_97\n      jump\t// in\n    tag_230:\n        /* \"#utility.yul\":7860:7934   */\n      swap2\n      pop\n        /* \"#utility.yul\":7943:8036   */\n      tag_231\n        /* \"#utility.yul\":8032:8035   */\n      dup3\n        /* \"#utility.yul\":7943:8036   */\n      tag_118\n      jump\t// in\n    tag_231:\n        /* \"#utility.yul\":8061:8063   */\n      0x20\n        /* \"#utility.yul\":8056:8059   */\n      dup3\n        /* \"#utility.yul\":8052:8064   */\n      add\n        /* \"#utility.yul\":8045:8064   */\n      swap1\n      pop\n        /* \"#utility.yul\":7704:8070   */\n      swap2\n      swap1\n      pop\n      jump\t// out\n        /* \"#utility.yul\":8076:8495   */\n    tag_56:\n        /* \"#utility.yul\":8242:8246   */\n      0x00\n        /* \"#utility.yul\":8280:8282   */\n      0x20\n        /* \"#utility.yul\":8269:8278   */\n      dup3\n        /* \"#utility.yul\":8265:8283   */\n      add\n        /* \"#utility.yul\":8257:8283   */\n      swap1\n      pop\n        /* \"#utility.yul\":8329:8338   */\n      dup2\n        /* \"#utility.yul\":8323:8327   */\n      dup2\n        /* \"#utility.yul\":8319:8339   */\n      sub\n        /* \"#utility.yul\":8315:8316   */\n      0x00\n        /* \"#utility.yul\":8304:8313   */\n      dup4\n        /* \"#utility.yul\":8300:8317   */\n      add\n        /* \"#utility.yul\":8293:8340   */\n      mstore\n        /* \"#utility.yul\":8357:8488   */\n      tag_233\n        /* \"#utility.yul\":8483:8487   */\n      dup2\n        /* \"#utility.yul\":8357:8488   */\n      tag_119\n      jump\t// in\n    tag_233:\n        /* \"#utility.yul\":8349:8488   */\n      swap1\n      pop\n        /* \"#utility.yul\":8076:8495   */\n      swap2\n      swap1\n      pop\n      jump\t// out\n        /* \"#utility.yul\":8501:8833   */\n    tag_58:\n        /* \"#utility.yul\":8622:8626   */\n      0x00\n        /* \"#utility.yul\":8660:8662   */\n      0x40\n        /* \"#utility.yul\":8649:8658   */\n      dup3\n        /* \"#utility.yul\":8645:8663   */\n      add\n        /* \"#utility.yul\":8637:8663   */\n      swap1\n      pop\n        /* \"#utility.yul\":8673:8744   */\n      tag_235\n        /* \"#utility.yul\":8741:8742   */\n      0x00\n        /* \"#utility.yul\":8730:8739   */\n      dup4\n        /* \"#utility.yul\":8726:8743   */\n      add\n        /* \"#utility.yul\":8717:8723   */\n      dup6\n        /* \"#utility.yul\":8673:8744   */\n      tag_115\n      jump\t// in\n    tag_235:\n        /* \"#utility.yul\":8754:8826   */\n      tag_236\n        /* \"#utility.yul\":8822:8824   */\n      0x20\n        /* \"#utility.yul\":8811:8820   */\n      dup4\n        /* \"#utility.yul\":8807:8825   */\n      add\n        /* \"#utility.yul\":8798:8804   */\n      dup5\n        /* \"#utility.yul\":8754:8826   */\n      tag_112\n      jump\t// in\n    tag_236:\n        /* \"#utility.yul\":8501:8833   */\n      swap4\n      swap3\n      pop\n      pop\n      pop\n      jump\t// out\n        /* \"#utility.yul\":8839:9019   */\n    tag_120:\n        /* \"#utility.yul\":8887:8964   */\n      0x4e487b7100000000000000000000000000000000000000000000000000000000\n        /* \"#utility.yul\":8884:8885   */\n      0x00\n        /* \"#utility.yul\":8877:8965   */\n      mstore\n        /* \"#utility.yul\":8984:8988   */\n      0x22\n        /* \"#utility.yul\":8981:8982   */\n      0x04\n        /* \"#utility.yul\":8974:8989   */\n      mstore\n        /* \"#utility.yul\":9008:9012   */\n      0x24\n        /* \"#utility.yul\":9005:9006   */\n      0x00\n        /* \"#utility.yul\":8998:9013   */\n      revert\n        /* \"#utility.yul\":9025:9345   */\n    tag_61:\n        /* \"#utility.yul\":9069:9075   */\n      0x00\n        /* \"#utility.yul\":9106:9107   */\n      0x02\n        /* \"#utility.yul\":9100:9104   */\n      dup3\n        /* \"#utility.yul\":9096:9108   */\n      div\n        /* \"#utility.yul\":9086:9108   */\n      swap1\n      pop\n        /* \"#utility.yul\":9153:9154   */\n      0x01\n        /* \"#utility.yul\":9147:9151   */\n      dup3\n        /* \"#utility.yul\":9143:9155   */\n      and\n        /* \"#utility.yul\":9174:9192   */\n      dup1\n        /* \"#utility.yul\":9164:9245   */\n      tag_239\n      jumpi\n        /* \"#utility.yul\":9230:9234   */\n      0x7f\n        /* \"#utility.yul\":9222:9228   */\n      dup3\n        /* \"#utility.yul\":9218:9235   */\n      and\n        /* \"#utility.yul\":9208:9235   */\n      swap2\n      pop\n        /* \"#utility.yul\":9164:9245   */\n    tag_239:\n        /* \"#utility.yul\":9292:9294   */\n      0x20\n        /* \"#utility.yul\":9284:9290   */\n      dup3\n        /* \"#utility.yul\":9281:9295   */\n      lt\n        /* \"#utility.yul\":9261:9279   */\n      dup2\n        /* \"#utility.yul\":9258:9296   */\n      sub\n        /* \"#utility.yul\":9255:9339   */\n      tag_240\n      jumpi\n        /* \"#utility.yul\":9311:9329   */\n      tag_241\n      tag_120\n      jump\t// in\n    tag_241:\n        /* \"#utility.yul\":9255:9339   */\n    tag_240:\n        /* \"#utility.yul\":9076:9345   */\n      pop\n        /* \"#utility.yul\":9025:9345   */\n      swap2\n      swap1\n      pop\n      jump\t// out\n        /* \"#utility.yul\":9351:9518   */\n    tag_121:\n        /* \"#utility.yul\":9491:9510   */\n      0x55736572206e6f7420617070726f766564000000000000000000000000000000\n        /* \"#utility.yul\":9487:9488   */\n      0x00\n        /* \"#utility.yul\":9479:9485   */\n      dup3\n        /* \"#utility.yul\":9475:9489   */\n      add\n        /* \"#utility.yul\":9468:9511   */\n      mstore\n        /* \"#utility.yul\":9351:9518   */\n      pop\n      jump\t// out\n        /* \"#utility.yul\":9524:9890   */\n    tag_122:\n        /* \"#utility.yul\":9666:9669   */\n      0x00\n        /* \"#utility.yul\":9687:9754   */\n      tag_244\n        /* \"#utility.yul\":9751:9753   */\n      0x11\n        /* \"#utility.yul\":9746:9749   */\n      dup4\n        /* \"#utility.yul\":9687:9754   */\n      tag_97\n      jump\t// in\n    tag_244:\n        /* \"#utility.yul\":9680:9754   */\n      swap2\n      pop\n        /* \"#utility.yul\":9763:9856   */\n      tag_245\n        /* \"#utility.yul\":9852:9855   */\n      dup3\n        /* \"#utility.yul\":9763:9856   */\n      tag_121\n      jump\t// in\n    tag_245:\n        /* \"#utility.yul\":9881:9883   */\n      0x20\n        /* \"#utility.yul\":9876:9879   */\n      dup3\n        /* \"#utility.yul\":9872:9884   */\n      add\n        /* \"#utility.yul\":9865:9884   */\n      swap1\n      pop\n        /* \"#utility.yul\":9524:9890   */\n      swap2\n      swap1\n      pop\n      jump\t// out\n        /* \"#utility.yul\":9896:10315   */\n    tag_70:\n        /* \"#utility.yul\":10062:10066   */\n      0x00\n        /* \"#utility.yul\":10100:10102   */\n      0x20\n        /* \"#utility.yul\":10089:10098   */\n      dup3\n        /* \"#utility.yul\":10085:10103   */\n      add\n        /* \"#utility.yul\":10077:10103   */\n      swap1\n      pop\n        /* \"#utility.yul\":10149:10158   */\n      dup2\n        /* \"#utility.yul\":10143:10147   */\n      dup2\n        /* \"#utility.yul\":10139:10159   */\n      sub\n        /* \"#utility.yul\":10135:10136   */\n      0x00\n        /* \"#utility.yul\":10124:10133   */\n      dup4\n        /* \"#utility.yul\":10120:10137   */\n      add\n        /* \"#utility.yul\":10113:10160   */\n      mstore\n        /* \"#utility.yul\":10177:10308   */\n      tag_247\n        /* \"#utility.yul\":10303:10307   */\n      dup2\n        /* \"#utility.yul\":10177:10308   */\n      tag_122\n      jump\t// in\n    tag_247:\n        /* \"#utility.yul\":10169:10308   */\n      swap1\n      pop\n        /* \"#utility.yul\":9896:10315   */\n      swap2\n      swap1\n      pop\n      jump\t// out\n        /* \"#utility.yul\":10321:10462   */\n    tag_123:\n        /* \"#utility.yul\":10370:10374   */\n      0x00\n        /* \"#utility.yul\":10393:10396   */\n      dup2\n        /* \"#utility.yul\":10385:10396   */\n      swap1\n      pop\n        /* \"#utility.yul\":10416:10419   */\n      dup2\n        /* \"#utility.yul\":10413:10414   */\n      0x00\n        /* \"#utility.yul\":10406:10420   */\n      mstore\n        /* \"#utility.yul\":10450:10454   */\n      0x20\n        /* \"#utility.yul\":10447:10448   */\n      0x00\n        /* \"#utility.yul\":10437:10455   */\n      keccak256\n        /* \"#utility.yul\":10429:10455   */\n      swap1\n      pop\n        /* \"#utility.yul\":10321:10462   */\n      swap2\n      swap1\n      pop\n      jump\t// out\n        /* \"#utility.yul\":10468:10561   */\n    tag_124:\n        /* \"#utility.yul\":10505:10511   */\n      0x00\n        /* \"#utility.yul\":10552:10554   */\n      0x20\n        /* \"#utility.yul\":10547:10549   */\n      0x1f\n        /* \"#utility.yul\":10540:10545   */\n      dup4\n        /* \"#utility.yul\":10536:10550   */\n      add\n        /* \"#utility.yul\":10532:10555   */\n      div\n        /* \"#utility.yul\":10522:10555   */\n      swap1\n      pop\n        /* \"#utility.yul\":10468:10561   */\n      swap2\n      swap1\n      pop\n      jump\t// out\n        /* \"#utility.yul\":10567:10674   */\n    tag_125:\n        /* \"#utility.yul\":10611:10619   */\n      0x00\n        /* \"#utility.yul\":10661:10666   */\n      dup3\n        /* \"#utility.yul\":10655:10659   */\n      dup3\n        /* \"#utility.yul\":10651:10667   */\n      shl\n        /* \"#utility.yul\":10630:10667   */\n      swap1\n      pop\n        /* \"#utility.yul\":10567:10674   */\n      swap3\n      swap2\n      pop\n      pop\n      jump\t// out\n        /* \"#utility.yul\":10680:11073   */\n    tag_126:\n        /* \"#utility.yul\":10749:10755   */\n      0x00\n        /* \"#utility.yul\":10799:10800   */\n      0x08\n        /* \"#utility.yul\":10787:10797   */\n      dup4\n        /* \"#utility.yul\":10783:10801   */\n      mul\n        /* \"#utility.yul\":10822:10919   */\n      tag_252\n        /* \"#utility.yul\":10852:10918   */\n      0xffffffffffffffffffffffffffffffffffffffffffffffffffffffffffffffff\n        /* \"#utility.yul\":10841:10850   */\n      dup3\n        /* \"#utility.yul\":10822:10919   */\n      tag_125\n      jump\t// in\n    tag_252:\n        /* \"#utility.yul\":10940:10979   */\n      tag_253\n        /* \"#utility.yul\":10970:10978   */\n      dup7\n        /* \"#utility.yul\":10959:10968   */\n      dup4\n        /* \"#utility.yul\":10940:10979   */\n      tag_125\n      jump\t// in\n    tag_253:\n        /* \"#utility.yul\":10928:10979   */\n      swap6\n      pop\n        /* \"#utility.yul\":11012:11016   */\n      dup1\n        /* \"#utility.yul\":11008:11017   */\n      not\n        /* \"#utility.yul\":11001:11006   */\n      dup5\n        /* \"#utility.yul\":10997:11018   */\n      and\n        /* \"#utility.yul\":10988:11018   */\n      swap4\n      pop\n        /* \"#utility.yul\":11061:11065   */\n      dup1\n        /* \"#utility.yul\":11051:11059   */\n      dup7\n        /* \"#utility.yul\":11047:11066   */\n      and\n        /* \"#utility.yul\":11040:11045   */\n      dup5\n        /* \"#utility.yul\":11037:11067   */\n      or\n        /* \"#utility.yul\":11027:11067   */\n      swap3\n      pop\n        /* \"#utility.yul\":10756:11073   */\n      pop\n      pop\n        /* \"#utility.yul\":10680:11073   */\n      swap4\n      swap3\n      pop\n      pop\n      pop\n      jump\t// out\n        /* \"#utility.yul\":11079:11139   */\n    tag_127:\n        /* \"#utility.yul\":11107:11110   */\n      0x00\n        /* \"#utility.yul\":11128:11133   */\n      dup2\n        /* \"#utility.yul\":11121:11133   */\n      swap1\n      pop\n        /* \"#utility.yul\":11079:11139   */\n      swap2\n      swap1\n      pop\n      jump\t// out\n        /* \"#utility.yul\":11145:11287   */\n    tag_128:\n        /* \"#utility.yul\":11195:11204   */\n      0x00\n        /* \"#utility.yul\":11228:11281   */\n      tag_256\n        /* \"#utility.yul\":11246:11280   */\n      tag_257\n        /* \"#utility.yul\":11255:11279   */\n      tag_258\n        /* \"#utility.yul\":11273:11278   */\n      dup5\n        /* \"#utility.yul\":11255:11279   */\n      tag_93\n      jump\t// in\n    tag_258:\n        /* \"#utility.yul\":11246:11280   */\n      tag_127\n      jump\t// in\n    tag_257:\n        /* \"#utility.yul\":11228:11281   */\n      tag_93\n      jump\t// in\n    tag_256:\n        /* \"#utility.yul\":11215:11281   */\n      swap1\n      pop\n        /* \"#utility.yul\":11145:11287   */\n      swap2\n      swap1\n      pop\n      jump\t// out\n        /* \"#utility.yul\":11293:11368   */\n    tag_129:\n        /* \"#utility.yul\":11336:11339   */\n      0x00\n        /* \"#utility.yul\":11357:11362   */\n      dup2\n        /* \"#utility.yul\":11350:11362   */\n      swap1\n      pop\n        /* \"#utility.yul\":11293:11368   */\n      swap2\n      swap1\n      pop\n      jump\t// out\n        /* \"#utility.yul\":11374:11643   */\n    tag_130:\n        /* \"#utility.yul\":11484:11523   */\n      tag_261\n        /* \"#utility.yul\":11515:11522   */\n      dup4\n        /* \"#utility.yul\":11484:11523   */\n      tag_128\n      jump\t// in\n    tag_261:\n        /* \"#utility.yul\":11545:11636   */\n      tag_262\n        /* \"#utility.yul\":11594:11635   */\n      tag_263\n        /* \"#utility.yul\":11618:11634   */\n      dup3\n        /* \"#utility.yul\":11594:11635   */\n      tag_129\n      jump\t// in\n    tag_263:\n        /* \"#utility.yul\":11586:11592   */\n      dup5\n        /* \"#utility.yul\":11579:11583   */\n      dup5\n        /* \"#utility.yul\":11573:11584   */\n      sload\n        /* \"#utility.yul\":11545:11636   */\n      tag_126\n      jump\t// in\n    tag_262:\n        /* \"#utility.yul\":11539:11543   */\n      dup3\n        /* \"#utility.yul\":11532:11637   */\n      sstore\n        /* \"#utility.yul\":11450:11643   */\n      pop\n        /* \"#utility.yul\":11374:11643   */\n      pop\n      pop\n      pop\n      jump\t// out\n        /* \"#utility.yul\":11649:11722   */\n    tag_131:\n        /* \"#utility.yul\":11694:11697   */\n      0x00\n        /* \"#utility.yul\":11649:11722   */\n      swap1\n      jump\t// out\n        /* \"#utility.yul\":11728:11917   */\n    tag_132:\n        /* \"#utility.yul\":11805:11837   */\n      tag_266\n      tag_131\n      jump\t// in\n    tag_266:\n        /* \"#utility.yul\":11846:11911   */\n      tag_267\n        /* \"#utility.yul\":11904:11910   */\n      dup2\n        /* \"#utility.yul\":11896:11902   */\n      dup5\n        /* \"#utility.yul\":11890:11894   */\n      dup5\n        /* \"#utility.yul\":11846:11911   */\n      tag_130\n      jump\t// in\n    tag_267:\n        /* \"#utility.yul\":11781:11917   */\n      pop\n        /* \"#utility.yul\":11728:11917   */\n      pop\n      pop\n      jump\t// out\n        /* \"#utility.yul\":11923:12109   */\n    tag_133:\n        /* \"#utility.yul\":11983:12103   */\n    tag_269:\n        /* \"#utility.yul\":12000:12003   */\n      dup2\n        /* \"#utility.yul\":11993:11998   */\n      dup2\n        /* \"#utility.yul\":11990:12004   */\n      lt\n        /* \"#utility.yul\":11983:12103   */\n      iszero\n      tag_271\n      jumpi\n        /* \"#utility.yul\":12054:12093   */\n      tag_272\n        /* \"#utility.yul\":12091:12092   */\n      0x00\n        /* \"#utility.yul\":12084:12089   */\n      dup3\n        /* \"#utility.yul\":12054:12093   */\n      tag_132\n      jump\t// in\n    tag_272:\n        /* \"#utility.yul\":12027:12028   */\n      0x01\n        /* \"#utility.yul\":12020:12025   */\n      dup2\n        /* \"#utility.yul\":12016:12029   */\n      add\n        /* \"#utility.yul\":12007:12029   */\n      swap1\n      pop\n        /* \"#utility.yul\":11983:12103   */\n      jump(tag_269)\n    tag_271:\n        /* \"#utility.yul\":11923:12109   */\n      pop\n      pop\n      jump\t// out\n        /* \"#utility.yul\":12115:12658   */\n    tag_134:\n        /* \"#utility.yul\":12216:12218   */\n      0x1f\n        /* \"#utility.yul\":12211:12214   */\n      dup3\n        /* \"#utility.yul\":12208:12219   */\n      gt\n        /* \"#utility.yul\":12205:12651   */\n      iszero\n      tag_274\n      jumpi\n        /* \"#utility.yul\":12250:12288   */\n      tag_275\n        /* \"#utility.yul\":12282:12287   */\n      dup2\n        /* \"#utility.yul\":12250:12288   */\n      tag_123\n      jump\t// in\n    tag_275:\n        /* \"#utility.yul\":12334:12363   */\n      tag_276\n        /* \"#utility.yul\":12352:12362   */\n      dup5\n        /* \"#utility.yul\":12334:12363   */\n      tag_124\n      jump\t// in\n    tag_276:\n        /* \"#utility.yul\":12324:12332   */\n      dup2\n        /* \"#utility.yul\":12320:12364   */\n      add\n        /* \"#utility.yul\":12517:12519   */\n      0x20\n        /* \"#utility.yul\":12505:12515   */\n      dup6\n        /* \"#utility.yul\":12502:12520   */\n      lt\n        /* \"#utility.yul\":12499:12548   */\n      iszero\n      tag_277\n      jumpi\n        /* \"#utility.yul\":12538:12546   */\n      dup2\n        /* \"#utility.yul\":12523:12546   */\n      swap1\n      pop\n        /* \"#utility.yul\":12499:12548   */\n    tag_277:\n        /* \"#utility.yul\":12561:12641   */\n      tag_278\n        /* \"#utility.yul\":12617:12639   */\n      tag_279\n        /* \"#utility.yul\":12635:12638   */\n      dup6\n        /* \"#utility.yul\":12617:12639   */\n      tag_124\n      jump\t// in\n    tag_279:\n        /* \"#utility.yul\":12607:12615   */\n      dup4\n        /* \"#utility.yul\":12603:12640   */\n      add\n        /* \"#utility.yul\":12590:12601   */\n      dup3\n        /* \"#utility.yul\":12561:12641   */\n      tag_133\n      jump\t// in\n    tag_278:\n        /* \"#utility.yul\":12220:12651   */\n      pop\n      pop\n        /* \"#utility.yul\":12205:12651   */\n    tag_274:\n        /* \"#utility.yul\":12115:12658   */\n      pop\n      pop\n      pop\n      jump\t// out\n        /* \"#utility.yul\":12664:12781   */\n    tag_135:\n        /* \"#utility.yul\":12718:12726   */\n      0x00\n        /* \"#utility.yul\":12768:12773   */\n      dup3\n        /* \"#utility.yul\":12762:12766   */\n      dup3\n        /* \"#utility.yul\":12758:12774   */\n      shr\n        /* \"#utility.yul\":12737:12774   */\n      swap1\n      pop\n        /* \"#utility.yul\":12664:12781   */\n      swap3\n      swap2\n      pop\n      pop\n      jump\t// out\n        /* \"#utility.yul\":12787:12956   */\n    tag_136:\n        /* \"#utility.yul\":12831:12837   */\n      0x00\n        /* \"#utility.yul\":12864:12915   */\n      tag_282\n        /* \"#utility.yul\":12912:12913   */\n      0x00\n        /* \"#utility.yul\":12908:12914   */\n      not\n        /* \"#utility.yul\":12900:12905   */\n      dup5\n        /* \"#utility.yul\":12897:12898   */\n      0x08\n        /* \"#utility.yul\":12893:12906   */\n      mul\n        /* \"#utility.yul\":12864:12915   */\n      tag_135\n      jump\t// in\n    tag_282:\n        /* \"#utility.yul\":12860:12916   */\n      not\n        /* \"#utility.yul\":12945:12949   */\n      dup1\n        /* \"#utility.yul\":12939:12943   */\n      dup4\n        /* \"#utility.yul\":12935:12950   */\n      and\n        /* \"#utility.yul\":12925:12950   */\n      swap2\n      pop\n        /* \"#utility.yul\":12838:12956   */\n      pop\n        /* \"#utility.yul\":12787:12956   */\n      swap3\n      swap2\n      pop\n      pop\n      jump\t// out\n        /* \"#utility.yul\":12961:13256   */\n    tag_137:\n        /* \"#utility.yul\":13037:13041   */\n      0x00\n        /* \"#utility.yul\":13183:13212   */\n      tag_284\n        /* \"#utility.yul\":13208:13211   */\n      dup4\n        /* \"#utility.yul\":13202:13206   */\n      dup4\n        /* \"#utility.yul\":13183:13212   */\n      tag_136\n      jump\t// in\n    tag_284:\n        /* \"#utility.yul\":13175:13212   */\n      swap2\n      pop\n        /* \"#utility.yul\":13245:13248   */\n      dup3\n        /* \"#utility.yul\":13242:13243   */\n      0x02\n        /* \"#utility.yul\":13238:13249   */\n      mul\n        /* \"#utility.yul\":13232:13236   */\n      dup3\n        /* \"#utility.yul\":13229:13250   */\n      or\n        /* \"#utility.yul\":13221:13250   */\n      swap1\n      pop\n        /* \"#utility.yul\":12961:13256   */\n      swap3\n      swap2\n      pop\n      pop\n      jump\t// out\n        /* \"#utility.yul\":13261:14656   */\n    tag_72:\n        /* \"#utility.yul\":13378:13415   */\n      tag_286\n        /* \"#utility.yul\":13411:13414   */\n      dup3\n        /* \"#utility.yul\":13378:13415   */\n      tag_96\n      jump\t// in\n    tag_286:\n        /* \"#utility.yul\":13480:13498   */\n      0xffffffffffffffff\n        /* \"#utility.yul\":13472:13478   */\n      dup2\n        /* \"#utility.yul\":13469:13499   */\n      gt\n        /* \"#utility.yul\":13466:13522   */\n      iszero\n      tag_287\n      jumpi\n        /* \"#utility.yul\":13502:13520   */\n      tag_288\n      tag_103\n      jump\t// in\n    tag_288:\n        /* \"#utility.yul\":13466:13522   */\n    tag_287:\n        /* \"#utility.yul\":13546:13584   */\n      tag_289\n        /* \"#utility.yul\":13578:13582   */\n      dup3\n        /* \"#utility.yul\":13572:13583   */\n      sload\n        /* \"#utility.yul\":13546:13584   */\n      tag_61\n      jump\t// in\n    tag_289:\n        /* \"#utility.yul\":13631:13698   */\n      tag_290\n        /* \"#utility.yul\":13691:13697   */\n      dup3\n        /* \"#utility.yul\":13683:13689   */\n      dup3\n        /* \"#utility.yul\":13677:13681   */\n      dup6\n        /* \"#utility.yul\":13631:13698   */\n      tag_134\n      jump\t// in\n    tag_290:\n        /* \"#utility.yul\":13725:13726   */\n      0x00\n        /* \"#utility.yul\":13749:13753   */\n      0x20\n        /* \"#utility.yul\":13736:13753   */\n      swap1\n      pop\n        /* \"#utility.yul\":13781:13783   */\n      0x1f\n        /* \"#utility.yul\":13773:13779   */\n      dup4\n        /* \"#utility.yul\":13770:13784   */\n      gt\n        /* \"#utility.yul\":13798:13799   */\n      0x01\n        /* \"#utility.yul\":13793:14411   */\n      dup2\n      eq\n      tag_292\n      jumpi\n        /* \"#utility.yul\":14455:14456   */\n      0x00\n        /* \"#utility.yul\":14472:14478   */\n      dup5\n        /* \"#utility.yul\":14469:14546   */\n      iszero\n      tag_293\n      jumpi\n        /* \"#utility.yul\":14521:14530   */\n      dup3\n        /* \"#utility.yul\":14516:14519   */\n      dup8\n        /* \"#utility.yul\":14512:14531   */\n      add\n        /* \"#utility.yul\":14506:14532   */\n      mload\n        /* \"#utility.yul\":14497:14532   */\n      swap1\n      pop\n        /* \"#utility.yul\":14469:14546   */\n    tag_293:\n        /* \"#utility.yul\":14572:14639   */\n      tag_294\n        /* \"#utility.yul\":14632:14638   */\n      dup6\n        /* \"#utility.yul\":14625:14630   */\n      dup3\n        /* \"#utility.yul\":14572:14639   */\n      tag_137\n      jump\t// in\n    tag_294:\n        /* \"#utility.yul\":14566:14570   */\n      dup7\n        /* \"#utility.yul\":14559:14640   */\n      sstore\n        /* \"#utility.yul\":14428:14650   */\n      pop\n        /* \"#utility.yul\":13763:14650   */\n      jump(tag_291)\n        /* \"#utility.yul\":13793:14411   */\n    tag_292:\n        /* \"#utility.yul\":13845:13849   */\n      0x1f\n        /* \"#utility.yul\":13841:13850   */\n      not\n        /* \"#utility.yul\":13833:13839   */\n      dup5\n        /* \"#utility.yul\":13829:13851   */\n      and\n        /* \"#utility.yul\":13879:13916   */\n      tag_295\n        /* \"#utility.yul\":13911:13915   */\n      dup7\n        /* \"#utility.yul\":13879:13916   */\n      tag_123\n      jump\t// in\n    tag_295:\n        /* \"#utility.yul\":13938:13939   */\n      0x00\n        /* \"#utility.yul\":13952:14160   */\n    tag_296:\n        /* \"#utility.yul\":13966:13973   */\n      dup3\n        /* \"#utility.yul\":13963:13964   */\n      dup2\n        /* \"#utility.yul\":13960:13974   */\n      lt\n        /* \"#utility.yul\":13952:14160   */\n      iszero\n      tag_298\n      jumpi\n        /* \"#utility.yul\":14045:14054   */\n      dup5\n        /* \"#utility.yul\":14040:14043   */\n      dup10\n        /* \"#utility.yul\":14036:14055   */\n      add\n        /* \"#utility.yul\":14030:14056   */\n      mload\n        /* \"#utility.yul\":14022:14028   */\n      dup3\n        /* \"#utility.yul\":14015:14057   */\n      sstore\n        /* \"#utility.yul\":14096:14097   */\n      0x01\n        /* \"#utility.yul\":14088:14094   */\n      dup3\n        /* \"#utility.yul\":14084:14098   */\n      add\n        /* \"#utility.yul\":14074:14098   */\n      swap2\n      pop\n        /* \"#utility.yul\":14143:14145   */\n      0x20\n        /* \"#utility.yul\":14132:14141   */\n      dup6\n        /* \"#utility.yul\":14128:14146   */\n      add\n        /* \"#utility.yul\":14115:14146   */\n      swap5\n      pop\n        /* \"#utility.yul\":13989:13993   */\n      0x20\n        /* \"#utility.yul\":13986:13987   */\n      dup2\n        /* \"#utility.yul\":13982:13994   */\n      add\n        /* \"#utility.yul\":13977:13994   */\n      swap1\n      pop\n        /* \"#utility.yul\":13952:14160   */\n      jump(tag_296)\n    tag_298:\n        /* \"#utility.yul\":14188:14194   */\n      dup7\n        /* \"#utility.yul\":14179:14186   */\n      dup4\n        /* \"#utility.yul\":14176:14195   */\n      lt\n        /* \"#utility.yul\":14173:14352   */\n      iszero\n      tag_299\n      jumpi\n        /* \"#utility.yul\":14246:14255   */\n      dup5\n        /* \"#utility.yul\":14241:14244   */\n      dup10\n        /* \"#utility.yul\":14237:14256   */\n      add\n        /* \"#utility.yul\":14231:14257   */\n      mload\n        /* \"#utility.yul\":14289:14337   */\n      tag_300\n        /* \"#utility.yul\":14331:14335   */\n      0x1f\n        /* \"#utility.yul\":14323:14329   */\n      dup10\n        /* \"#utility.yul\":14319:14336   */\n      and\n        /* \"#utility.yul\":14308:14317   */\n      dup3\n        /* \"#utility.yul\":14289:14337   */\n      tag_136\n      jump\t// in\n    tag_300:\n        /* \"#utility.yul\":14281:14287   */\n      dup4\n        /* \"#utility.yul\":14274:14338   */\n      sstore\n        /* \"#utility.yul\":14196:14352   */\n      pop\n        /* \"#utility.yul\":14173:14352   */\n    tag_299:\n        /* \"#utility.yul\":14398:14399   */\n      0x01\n        /* \"#utility.yul\":14394:14395   */\n      0x02\n        /* \"#utility.yul\":14386:14392   */\n      dup9\n        /* \"#utility.yul\":14382:14396   */\n      mul\n        /* \"#utility.yul\":14378:14400   */\n      add\n        /* \"#utility.yul\":14372:14376   */\n      dup9\n        /* \"#utility.yul\":14365:14401   */\n      sstore\n        /* \"#utility.yul\":13800:14411   */\n      pop\n      pop\n      pop\n        /* \"#utility.yul\":13763:14650   */\n    tag_291:\n      pop\n        /* \"#utility.yul\":13353:14656   */\n      pop\n      pop\n      pop\n        /* \"#utility.yul\":13261:14656   */\n      pop\n      pop\n      jump\t// out\n        /* \"#utility.yul\":14662:14756   */\n    tag_138:\n        /* \"#utility.yul\":14695:14703   */\n      0x00\n        /* \"#utility.yul\":14743:14748   */\n      dup2\n        /* \"#utility.yul\":14739:14741   */\n      0x60\n        /* \"#utility.yul\":14735:14749   */\n      shl\n        /* \"#utility.yul\":14714:14749   */\n      swap1\n      pop\n        /* \"#utility.yul\":14662:14756   */\n      swap2\n      swap1\n      pop\n      jump\t// out\n        /* \"#utility.yul\":14762:14856   */\n    tag_139:\n        /* \"#utility.yul\":14801:14808   */\n      0x00\n        /* \"#utility.yul\":14830:14850   */\n      tag_303\n        /* \"#utility.yul\":14844:14849   */\n      dup3\n        /* \"#utility.yul\":14830:14850   */\n      tag_138\n      jump\t// in\n    tag_303:\n        /* \"#utility.yul\":14819:14850   */\n      swap1\n      pop\n        /* \"#utility.yul\":14762:14856   */\n      swap2\n      swap1\n      pop\n      jump\t// out\n        /* \"#utility.yul\":14862:14962   */\n    tag_140:\n        /* \"#utility.yul\":14901:14908   */\n      0x00\n        /* \"#utility.yul\":14930:14956   */\n      tag_305\n        /* \"#utility.yul\":14950:14955   */\n      dup3\n        /* \"#utility.yul\":14930:14956   */\n      tag_139\n      jump\t// in\n    tag_305:\n        /* \"#utility.yul\":14919:14956   */\n      swap1\n      pop\n        /* \"#utility.yul\":14862:14962   */\n      swap2\n      swap1\n      pop\n      jump\t// out\n        /* \"#utility.yul\":14968:15125   */\n    tag_141:\n        /* \"#utility.yul\":15073:15118   */\n      tag_307\n        /* \"#utility.yul\":15093:15117   */\n      tag_308\n        /* \"#utility.yul\":15111:15116   */\n      dup3\n        /* \"#utility.yul\":15093:15117   */\n      tag_111\n      jump\t// in\n    tag_308:\n        /* \"#utility.yul\":15073:15118   */\n      tag_140\n      jump\t// in\n    tag_307:\n        /* \"#utility.yul\":15068:15071   */\n      dup3\n        /* \"#utility.yul\":15061:15119   */\n      mstore\n        /* \"#utility.yul\":14968:15125   */\n      pop\n      pop\n      jump\t// out\n        /* \"#utility.yul\":15131:15387   */\n    tag_86:\n        /* \"#utility.yul\":15243:15246   */\n      0x00\n        /* \"#utility.yul\":15258:15333   */\n      tag_310\n        /* \"#utility.yul\":15329:15332   */\n      dup3\n        /* \"#utility.yul\":15320:15326   */\n      dup5\n        /* \"#utility.yul\":15258:15333   */\n      tag_141\n      jump\t// in\n    tag_310:\n        /* \"#utility.yul\":15358:15360   */\n      0x14\n        /* \"#utility.yul\":15353:15356   */\n      dup3\n        /* \"#utility.yul\":15349:15361   */\n      add\n        /* \"#utility.yul\":15342:15361   */\n      swap2\n      pop\n        /* \"#utility.yul\":15378:15381   */\n      dup2\n        /* \"#utility.yul\":15371:15381   */\n      swap1\n      pop\n        /* \"#utility.yul\":15131:15387   */\n      swap3\n      swap2\n      pop\n      pop\n      jump\t// out\n        /* \"#utility.yul\":15393:15573   */\n    tag_142:\n        /* \"#utility.yul\":15441:15518   */\n      0x4e487b7100000000000000000000000000000000000000000000000000000000\n        /* \"#utility.yul\":15438:15439   */\n      0x00\n        /* \"#utility.yul\":15431:15519   */\n      mstore\n        /* \"#utility.yul\":15538:15542   */\n      0x11\n        /* \"#utility.yul\":15535:15536   */\n      0x04\n        /* \"#utility.yul\":15528:15543   */\n      mstore\n        /* \"#utility.yul\":15562:15566   */\n      0x24\n        /* \"#utility.yul\":15559:15560   */\n      0x00\n        /* \"#utility.yul\":15552:15567   */\n      revert\n        /* \"#utility.yul\":15579:15812   */\n    tag_89:\n        /* \"#utility.yul\":15618:15621   */\n      0x00\n        /* \"#utility.yul\":15641:15665   */\n      tag_313\n        /* \"#utility.yul\":15659:15664   */\n      dup3\n        /* \"#utility.yul\":15641:15665   */\n      tag_93\n      jump\t// in\n    tag_313:\n        /* \"#utility.yul\":15632:15665   */\n      swap2\n      pop\n        /* \"#utility.yul\":15687:15753   */\n      0xffffffffffffffffffffffffffffffffffffffffffffffffffffffffffffffff\n        /* \"#utility.yul\":15680:15685   */\n      dup3\n        /* \"#utility.yul\":15677:15754   */\n      sub\n        /* \"#utility.yul\":15674:15777   */\n      tag_314\n      jumpi\n        /* \"#utility.yul\":15757:15775   */\n      tag_315\n      tag_142\n      jump\t// in\n    tag_315:\n        /* \"#utility.yul\":15674:15777   */\n    tag_314:\n        /* \"#utility.yul\":15804:15805   */\n      0x01\n        /* \"#utility.yul\":15797:15802   */\n      dup3\n        /* \"#utility.yul\":15793:15806   */\n      add\n        /* \"#utility.yul\":15786:15806   */\n      swap1\n      pop\n        /* \"#utility.yul\":15579:15812   */\n      swap2\n      swap1\n      pop\n      jump\t// out\n\n    auxdata: 0xa2646970667358221220563635bad50217c7f5e9ceffbe3fb69fbe1bed791a2c18d26caf1eaf7b4c2d9264736f6c63430008180033\n}\n",
				"bytecode": {
					"linkReferences": {},
					"object": "608060405234801561000f575f80fd5b50600180819055503360025f6101000a81548173ffffffffffffffffffffffffffffffffffffffff021916908373ffffffffffffffffffffffffffffffffffffffff160217905550610e20806100645f395ff3fe608060405260043610610073575f3560e01c8063704f1b941161004d578063704f1b94146100f657806373d4a13a1461011e578063893d20e814610148578063bdccea16146101725761007a565b806321c4d12a1461007c5780633bc5de30146100a457806347064d6a146100ce5761007a565b3661007a57005b005b348015610087575f80fd5b506100a2600480360381019061009d91906105d2565b6101ae565b005b3480156100af575f80fd5b506100b8610300565b6040516100c59190610687565b60405180910390f35b3480156100d9575f80fd5b506100f460048036038101906100ef91906107d3565b61038f565b005b348015610101575f80fd5b5061011c600480360381019061011791906107d3565b61043d565b005b348015610129575f80fd5b50610132610485565b60405161013f9190610687565b60405180910390f35b348015610153575f80fd5b5061015c610510565b6040516101699190610859565b60405180910390f35b34801561017d575f80fd5b506101986004803603810190610193919061089c565b610538565b6040516101a591906108d6565b60405180910390f35b60025f9054906101000a900473ffffffffffffffffffffffffffffffffffffffff1673ffffffffffffffffffffffffffffffffffffffff163373ffffffffffffffffffffffffffffffffffffffff161461023d576040517f08c379a000000000000000000000000000000000000000000000000000000000815260040161023490610939565b60405180910390fd5b60035f8281526020019081526020015f205f9054906101000a900460ff161561029b576040517f08c379a0000000000000000000000000000000000000000000000000000000008152600401610292906109a1565b60405180910390fd5b600160035f8381526020019081526020015f205f6101000a81548160ff0219169083151502179055507fb435ccfdf94417a9bbf268346b63899f30e15fc0532649688f86a389041b2bf381336040516102f59291906109bf565b60405180910390a150565b60605f805461030e90610a13565b80601f016020809104026020016040519081016040528092919081815260200182805461033a90610a13565b80156103855780601f1061035c57610100808354040283529160200191610385565b820191905f5260205f20905b81548152906001019060200180831161036857829003601f168201915b5050505050905090565b60035f61039b33610538565b81526020019081526020015f205f9054906101000a900460ff166103f4576040517f08c379a00000000000000000000000000000000000000000000000000000000081526004016103eb90610a8d565b60405180910390fd5b805f90816104029190610c48565b507f70a1cfe867989ce2ae7d36e8dfa2d3f6ad43678fe220e15a59c1d503092f9413816040516104329190610687565b60405180910390a150565b5f610446610569565b90507fb442efe467d2ef30e62927a3cae0afcbc799a8a0944d8a143332e4e5e51cee5d81336040516104799291906109bf565b60405180910390a15050565b5f805461049190610a13565b80601f01602080910402602001604051908101604052809291908181526020018280546104bd90610a13565b80156105085780601f106104df57610100808354040283529160200191610508565b820191905f5260205f20905b8154815290600101906020018083116104eb57829003601f168201915b505050505081565b5f60025f9054906101000a900473ffffffffffffffffffffffffffffffffffffffff16905090565b5f8160405160200161054a9190610d5c565b604051602081830303815290604052805190602001205f1c9050919050565b5f80600154905060015f81548092919061058290610da3565b91905055508091505090565b5f604051905090565b5f80fd5b5f80fd5b5f819050919050565b6105b18161059f565b81146105bb575f80fd5b50565b5f813590506105cc816105a8565b92915050565b5f602082840312156105e7576105e6610597565b5b5f6105f4848285016105be565b91505092915050565b5f81519050919050565b5f82825260208201905092915050565b5f5b83811015610634578082015181840152602081019050610619565b5f8484015250505050565b5f601f19601f8301169050919050565b5f610659826105fd565b6106638185610607565b9350610673818560208601610617565b61067c8161063f565b840191505092915050565b5f6020820190508181035f83015261069f818461064f565b905092915050565b5f80fd5b5f80fd5b7f4e487b71000000000000000000000000000000000000000000000000000000005f52604160045260245ffd5b6106e58261063f565b810181811067ffffffffffffffff82111715610704576107036106af565b5b80604052505050565b5f61071661058e565b905061072282826106dc565b919050565b5f67ffffffffffffffff821115610741576107406106af565b5b61074a8261063f565b9050602081019050919050565b828183375f83830152505050565b5f61077761077284610727565b61070d565b905082815260208101848484011115610793576107926106ab565b5b61079e848285610757565b509392505050565b5f82601f8301126107ba576107b96106a7565b5b81356107ca848260208601610765565b91505092915050565b5f602082840312156107e8576107e7610597565b5b5f82013567ffffffffffffffff8111156108055761080461059b565b5b610811848285016107a6565b91505092915050565b5f73ffffffffffffffffffffffffffffffffffffffff82169050919050565b5f6108438261081a565b9050919050565b61085381610839565b82525050565b5f60208201905061086c5f83018461084a565b92915050565b61087b81610839565b8114610885575f80fd5b50565b5f8135905061089681610872565b92915050565b5f602082840312156108b1576108b0610597565b5b5f6108be84828501610888565b91505092915050565b6108d08161059f565b82525050565b5f6020820190506108e95f8301846108c7565b92915050565b7f4f6e6c7920746865206f776e65722063616e20617070726f76652075736572735f82015250565b5f610923602083610607565b915061092e826108ef565b602082019050919050565b5f6020820190508181035f83015261095081610917565b9050919050565b7f5573657220697320616c726561647920617070726f76656400000000000000005f82015250565b5f61098b601883610607565b915061099682610957565b602082019050919050565b5f6020820190508181035f8301526109b88161097f565b9050919050565b5f6040820190506109d25f8301856108c7565b6109df602083018461084a565b9392505050565b7f4e487b71000000000000000000000000000000000000000000000000000000005f52602260045260245ffd5b5f6002820490506001821680610a2a57607f821691505b602082108103610a3d57610a3c6109e6565b5b50919050565b7f55736572206e6f7420617070726f7665640000000000000000000000000000005f82015250565b5f610a77601183610607565b9150610a8282610a43565b602082019050919050565b5f6020820190508181035f830152610aa481610a6b565b9050919050565b5f819050815f5260205f209050919050565b5f6020601f8301049050919050565b5f82821b905092915050565b5f60088302610b077fffffffffffffffffffffffffffffffffffffffffffffffffffffffffffffffff82610acc565b610b118683610acc565b95508019841693508086168417925050509392505050565b5f819050919050565b5f610b4c610b47610b428461059f565b610b29565b61059f565b9050919050565b5f819050919050565b610b6583610b32565b610b79610b7182610b53565b848454610ad8565b825550505050565b5f90565b610b8d610b81565b610b98818484610b5c565b505050565b5b81811015610bbb57610bb05f82610b85565b600181019050610b9e565b5050565b601f821115610c0057610bd181610aab565b610bda84610abd565b81016020851015610be9578190505b610bfd610bf585610abd565b830182610b9d565b50505b505050565b5f82821c905092915050565b5f610c205f1984600802610c05565b1980831691505092915050565b5f610c388383610c11565b9150826002028217905092915050565b610c51826105fd565b67ffffffffffffffff811115610c6a57610c696106af565b5b610c748254610a13565b610c7f828285610bbf565b5f60209050601f831160018114610cb0575f8415610c9e578287015190505b610ca88582610c2d565b865550610d0f565b601f198416610cbe86610aab565b5f5b82811015610ce557848901518255600182019150602085019450602081019050610cc0565b86831015610d025784890151610cfe601f891682610c11565b8355505b6001600288020188555050505b505050505050565b5f8160601b9050919050565b5f610d2d82610d17565b9050919050565b5f610d3e82610d23565b9050919050565b610d56610d5182610839565b610d34565b82525050565b5f610d678284610d45565b60148201915081905092915050565b7f4e487b71000000000000000000000000000000000000000000000000000000005f52601160045260245ffd5b5f610dad8261059f565b91507fffffffffffffffffffffffffffffffffffffffffffffffffffffffffffffffff8203610ddf57610dde610d76565b5b60018201905091905056fea2646970667358221220563635bad50217c7f5e9ceffbe3fb69fbe1bed791a2c18d26caf1eaf7b4c2d9264736f6c63430008180033",
					"opcodes": "PUSH1 0x80 PUSH1 0x40 MSTORE CALLVALUE DUP1 ISZERO PUSH2 0xF JUMPI PUSH0 DUP1 REVERT JUMPDEST POP PUSH1 0x1 DUP1 DUP2 SWAP1 SSTORE POP CALLER PUSH1 0x2 PUSH0 PUSH2 0x100 EXP DUP2 SLOAD DUP2 PUSH20 0xFFFFFFFFFFFFFFFFFFFFFFFFFFFFFFFFFFFFFFFF MUL NOT AND SWAP1 DUP4 PUSH20 0xFFFFFFFFFFFFFFFFFFFFFFFFFFFFFFFFFFFFFFFF AND MUL OR SWAP1 SSTORE POP PUSH2 0xE20 DUP1 PUSH2 0x64 PUSH0 CODECOPY PUSH0 RETURN INVALID PUSH1 0x80 PUSH1 0x40 MSTORE PUSH1 0x4 CALLDATASIZE LT PUSH2 0x73 JUMPI PUSH0 CALLDATALOAD PUSH1 0xE0 SHR DUP1 PUSH4 0x704F1B94 GT PUSH2 0x4D JUMPI DUP1 PUSH4 0x704F1B94 EQ PUSH2 0xF6 JUMPI DUP1 PUSH4 0x73D4A13A EQ PUSH2 0x11E JUMPI DUP1 PUSH4 0x893D20E8 EQ PUSH2 0x148 JUMPI DUP1 PUSH4 0xBDCCEA16 EQ PUSH2 0x172 JUMPI PUSH2 0x7A JUMP JUMPDEST DUP1 PUSH4 0x21C4D12A EQ PUSH2 0x7C JUMPI DUP1 PUSH4 0x3BC5DE30 EQ PUSH2 0xA4 JUMPI DUP1 PUSH4 0x47064D6A EQ PUSH2 0xCE JUMPI PUSH2 0x7A JUMP JUMPDEST CALLDATASIZE PUSH2 0x7A JUMPI STOP JUMPDEST STOP JUMPDEST CALLVALUE DUP1 ISZERO PUSH2 0x87 JUMPI PUSH0 DUP1 REVERT JUMPDEST POP PUSH2 0xA2 PUSH1 0x4 DUP1 CALLDATASIZE SUB DUP2 ADD SWAP1 PUSH2 0x9D SWAP2 SWAP1 PUSH2 0x5D2 JUMP JUMPDEST PUSH2 0x1AE JUMP JUMPDEST STOP JUMPDEST CALLVALUE DUP1 ISZERO PUSH2 0xAF JUMPI PUSH0 DUP1 REVERT JUMPDEST POP PUSH2 0xB8 PUSH2 0x300 JUMP JUMPDEST PUSH1 0x40 MLOAD PUSH2 0xC5 SWAP2 SWAP1 PUSH2 0x687 JUMP JUMPDEST PUSH1 0x40 MLOAD DUP1 SWAP2 SUB SWAP1 RETURN JUMPDEST CALLVALUE DUP1 ISZERO PUSH2 0xD9 JUMPI PUSH0 DUP1 REVERT JUMPDEST POP PUSH2 0xF4 PUSH1 0x4 DUP1 CALLDATASIZE SUB DUP2 ADD SWAP1 PUSH2 0xEF SWAP2 SWAP1 PUSH2 0x7D3 JUMP JUMPDEST PUSH2 0x38F JUMP JUMPDEST STOP JUMPDEST CALLVALUE DUP1 ISZERO PUSH2 0x101 JUMPI PUSH0 DUP1 REVERT JUMPDEST POP PUSH2 0x11C PUSH1 0x4 DUP1 CALLDATASIZE SUB DUP2 ADD SWAP1 PUSH2 0x117 SWAP2 SWAP1 PUSH2 0x7D3 JUMP JUMPDEST PUSH2 0x43D JUMP JUMPDEST STOP JUMPDEST CALLVALUE DUP1 ISZERO PUSH2 0x129 JUMPI PUSH0 DUP1 REVERT JUMPDEST POP PUSH2 0x132 PUSH2 0x485 JUMP JUMPDEST PUSH1 0x40 MLOAD PUSH2 0x13F SWAP2 SWAP1 PUSH2 0x687 JUMP JUMPDEST PUSH1 0x40 MLOAD DUP1 SWAP2 SUB SWAP1 RETURN JUMPDEST CALLVALUE DUP1 ISZERO PUSH2 0x153 JUMPI PUSH0 DUP1 REVERT JUMPDEST POP PUSH2 0x15C PUSH2 0x510 JUMP JUMPDEST PUSH1 0x40 MLOAD PUSH2 0x169 SWAP2 SWAP1 PUSH2 0x859 JUMP JUMPDEST PUSH1 0x40 MLOAD DUP1 SWAP2 SUB SWAP1 RETURN JUMPDEST CALLVALUE DUP1 ISZERO PUSH2 0x17D JUMPI PUSH0 DUP1 REVERT JUMPDEST POP PUSH2 0x198 PUSH1 0x4 DUP1 CALLDATASIZE SUB DUP2 ADD SWAP1 PUSH2 0x193 SWAP2 SWAP1 PUSH2 0x89C JUMP JUMPDEST PUSH2 0x538 JUMP JUMPDEST PUSH1 0x40 MLOAD PUSH2 0x1A5 SWAP2 SWAP1 PUSH2 0x8D6 JUMP JUMPDEST PUSH1 0x40 MLOAD DUP1 SWAP2 SUB SWAP1 RETURN JUMPDEST PUSH1 0x2 PUSH0 SWAP1 SLOAD SWAP1 PUSH2 0x100 EXP SWAP1 DIV PUSH20 0xFFFFFFFFFFFFFFFFFFFFFFFFFFFFFFFFFFFFFFFF AND PUSH20 0xFFFFFFFFFFFFFFFFFFFFFFFFFFFFFFFFFFFFFFFF AND CALLER PUSH20 0xFFFFFFFFFFFFFFFFFFFFFFFFFFFFFFFFFFFFFFFF AND EQ PUSH2 0x23D JUMPI PUSH1 0x40 MLOAD PUSH32 0x8C379A000000000000000000000000000000000000000000000000000000000 DUP2 MSTORE PUSH1 0x4 ADD PUSH2 0x234 SWAP1 PUSH2 0x939 JUMP JUMPDEST PUSH1 0x40 MLOAD DUP1 SWAP2 SUB SWAP1 REVERT JUMPDEST PUSH1 0x3 PUSH0 DUP3 DUP2 MSTORE PUSH1 0x20 ADD SWAP1 DUP2 MSTORE PUSH1 0x20 ADD PUSH0 KECCAK256 PUSH0 SWAP1 SLOAD SWAP1 PUSH2 0x100 EXP SWAP1 DIV PUSH1 0xFF AND ISZERO PUSH2 0x29B JUMPI PUSH1 0x40 MLOAD PUSH32 0x8C379A000000000000000000000000000000000000000000000000000000000 DUP2 MSTORE PUSH1 0x4 ADD PUSH2 0x292 SWAP1 PUSH2 0x9A1 JUMP JUMPDEST PUSH1 0x40 MLOAD DUP1 SWAP2 SUB SWAP1 REVERT JUMPDEST PUSH1 0x1 PUSH1 0x3 PUSH0 DUP4 DUP2 MSTORE PUSH1 0x20 ADD SWAP1 DUP2 MSTORE PUSH1 0x20 ADD PUSH0 KECCAK256 PUSH0 PUSH2 0x100 EXP DUP2 SLOAD DUP2 PUSH1 0xFF MUL NOT AND SWAP1 DUP4 ISZERO ISZERO MUL OR SWAP1 SSTORE POP PUSH32 0xB435CCFDF94417A9BBF268346B63899F30E15FC0532649688F86A389041B2BF3 DUP2 CALLER PUSH1 0x40 MLOAD PUSH2 0x2F5 SWAP3 SWAP2 SWAP1 PUSH2 0x9BF JUMP JUMPDEST PUSH1 0x40 MLOAD DUP1 SWAP2 SUB SWAP1 LOG1 POP JUMP JUMPDEST PUSH1 0x60 PUSH0 DUP1 SLOAD PUSH2 0x30E SWAP1 PUSH2 0xA13 JUMP JUMPDEST DUP1 PUSH1 0x1F ADD PUSH1 0x20 DUP1 SWAP2 DIV MUL PUSH1 0x20 ADD PUSH1 0x40 MLOAD SWAP1 DUP2 ADD PUSH1 0x40 MSTORE DUP1 SWAP3 SWAP2 SWAP1 DUP2 DUP2 MSTORE PUSH1 0x20 ADD DUP3 DUP1 SLOAD PUSH2 0x33A SWAP1 PUSH2 0xA13 JUMP JUMPDEST DUP1 ISZERO PUSH2 0x385 JUMPI DUP1 PUSH1 0x1F LT PUSH2 0x35C JUMPI PUSH2 0x100 DUP1 DUP4 SLOAD DIV MUL DUP4 MSTORE SWAP2 PUSH1 0x20 ADD SWAP2 PUSH2 0x385 JUMP JUMPDEST DUP3 ADD SWAP2 SWAP1 PUSH0 MSTORE PUSH1 0x20 PUSH0 KECCAK256 SWAP1 JUMPDEST DUP2 SLOAD DUP2 MSTORE SWAP1 PUSH1 0x1 ADD SWAP1 PUSH1 0x20 ADD DUP1 DUP4 GT PUSH2 0x368 JUMPI DUP3 SWAP1 SUB PUSH1 0x1F AND DUP3 ADD SWAP2 JUMPDEST POP POP POP POP POP SWAP1 POP SWAP1 JUMP JUMPDEST PUSH1 0x3 PUSH0 PUSH2 0x39B CALLER PUSH2 0x538 JUMP JUMPDEST DUP2 MSTORE PUSH1 0x20 ADD SWAP1 DUP2 MSTORE PUSH1 0x20 ADD PUSH0 KECCAK256 PUSH0 SWAP1 SLOAD SWAP1 PUSH2 0x100 EXP SWAP1 DIV PUSH1 0xFF AND PUSH2 0x3F4 JUMPI PUSH1 0x40 MLOAD PUSH32 0x8C379A000000000000000000000000000000000000000000000000000000000 DUP2 MSTORE PUSH1 0x4 ADD PUSH2 0x3EB SWAP1 PUSH2 0xA8D JUMP JUMPDEST PUSH1 0x40 MLOAD DUP1 SWAP2 SUB SWAP1 REVERT JUMPDEST DUP1 PUSH0 SWAP1 DUP2 PUSH2 0x402 SWAP2 SWAP1 PUSH2 0xC48 JUMP JUMPDEST POP PUSH32 0x70A1CFE867989CE2AE7D36E8DFA2D3F6AD43678FE220E15A59C1D503092F9413 DUP2 PUSH1 0x40 MLOAD PUSH2 0x432 SWAP2 SWAP1 PUSH2 0x687 JUMP JUMPDEST PUSH1 0x40 MLOAD DUP1 SWAP2 SUB SWAP1 LOG1 POP JUMP JUMPDEST PUSH0 PUSH2 0x446 PUSH2 0x569 JUMP JUMPDEST SWAP1 POP PUSH32 0xB442EFE467D2EF30E62927A3CAE0AFCBC799A8A0944D8A143332E4E5E51CEE5D DUP2 CALLER PUSH1 0x40 MLOAD PUSH2 0x479 SWAP3 SWAP2 SWAP1 PUSH2 0x9BF JUMP JUMPDEST PUSH1 0x40 MLOAD DUP1 SWAP2 SUB SWAP1 LOG1 POP POP JUMP JUMPDEST PUSH0 DUP1 SLOAD PUSH2 0x491 SWAP1 PUSH2 0xA13 JUMP JUMPDEST DUP1 PUSH1 0x1F ADD PUSH1 0x20 DUP1 SWAP2 DIV MUL PUSH1 0x20 ADD PUSH1 0x40 MLOAD SWAP1 DUP2 ADD PUSH1 0x40 MSTORE DUP1 SWAP3 SWAP2 SWAP1 DUP2 DUP2 MSTORE PUSH1 0x20 ADD DUP3 DUP1 SLOAD PUSH2 0x4BD SWAP1 PUSH2 0xA13 JUMP JUMPDEST DUP1 ISZERO PUSH2 0x508 JUMPI DUP1 PUSH1 0x1F LT PUSH2 0x4DF JUMPI PUSH2 0x100 DUP1 DUP4 SLOAD DIV MUL DUP4 MSTORE SWAP2 PUSH1 0x20 ADD SWAP2 PUSH2 0x508 JUMP JUMPDEST DUP3 ADD SWAP2 SWAP1 PUSH0 MSTORE PUSH1 0x20 PUSH0 KECCAK256 SWAP1 JUMPDEST DUP2 SLOAD DUP2 MSTORE SWAP1 PUSH1 0x1 ADD SWAP1 PUSH1 0x20 ADD DUP1 DUP4 GT PUSH2 0x4EB JUMPI DUP3 SWAP1 SUB PUSH1 0x1F AND DUP3 ADD SWAP2 JUMPDEST POP POP POP POP POP DUP2 JUMP JUMPDEST PUSH0 PUSH1 0x2 PUSH0 SWAP1 SLOAD SWAP1 PUSH2 0x100 EXP SWAP1 DIV PUSH20 0xFFFFFFFFFFFFFFFFFFFFFFFFFFFFFFFFFFFFFFFF AND SWAP1 POP SWAP1 JUMP JUMPDEST PUSH0 DUP2 PUSH1 0x40 MLOAD PUSH1 0x20 ADD PUSH2 0x54A SWAP2 SWAP1 PUSH2 0xD5C JUMP JUMPDEST PUSH1 0x40 MLOAD PUSH1 0x20 DUP2 DUP4 SUB SUB DUP2 MSTORE SWAP1 PUSH1 0x40 MSTORE DUP1 MLOAD SWAP1 PUSH1 0x20 ADD KECCAK256 PUSH0 SHR SWAP1 POP SWAP2 SWAP1 POP JUMP JUMPDEST PUSH0 DUP1 PUSH1 0x1 SLOAD SWAP1 POP PUSH1 0x1 PUSH0 DUP2 SLOAD DUP1 SWAP3 SWAP2 SWAP1 PUSH2 0x582 SWAP1 PUSH2 0xDA3 JUMP JUMPDEST SWAP2 SWAP1 POP SSTORE POP DUP1 SWAP2 POP POP SWAP1 JUMP JUMPDEST PUSH0 PUSH1 0x40 MLOAD SWAP1 POP SWAP1 JUMP JUMPDEST PUSH0 DUP1 REVERT JUMPDEST PUSH0 DUP1 REVERT JUMPDEST PUSH0 DUP2 SWAP1 POP SWAP2 SWAP1 POP JUMP JUMPDEST PUSH2 0x5B1 DUP2 PUSH2 0x59F JUMP JUMPDEST DUP2 EQ PUSH2 0x5BB JUMPI PUSH0 DUP1 REVERT JUMPDEST POP JUMP JUMPDEST PUSH0 DUP2 CALLDATALOAD SWAP1 POP PUSH2 0x5CC DUP2 PUSH2 0x5A8 JUMP JUMPDEST SWAP3 SWAP2 POP POP JUMP JUMPDEST PUSH0 PUSH1 0x20 DUP3 DUP5 SUB SLT ISZERO PUSH2 0x5E7 JUMPI PUSH2 0x5E6 PUSH2 0x597 JUMP JUMPDEST JUMPDEST PUSH0 PUSH2 0x5F4 DUP5 DUP3 DUP6 ADD PUSH2 0x5BE JUMP JUMPDEST SWAP2 POP POP SWAP3 SWAP2 POP POP JUMP JUMPDEST PUSH0 DUP2 MLOAD SWAP1 POP SWAP2 SWAP1 POP JUMP JUMPDEST PUSH0 DUP3 DUP3 MSTORE PUSH1 0x20 DUP3 ADD SWAP1 POP SWAP3 SWAP2 POP POP JUMP JUMPDEST PUSH0 JUMPDEST DUP4 DUP2 LT ISZERO PUSH2 0x634 JUMPI DUP1 DUP3 ADD MLOAD DUP2 DUP5 ADD MSTORE PUSH1 0x20 DUP2 ADD SWAP1 POP PUSH2 0x619 JUMP JUMPDEST PUSH0 DUP5 DUP5 ADD MSTORE POP POP POP POP JUMP JUMPDEST PUSH0 PUSH1 0x1F NOT PUSH1 0x1F DUP4 ADD AND SWAP1 POP SWAP2 SWAP1 POP JUMP JUMPDEST PUSH0 PUSH2 0x659 DUP3 PUSH2 0x5FD JUMP JUMPDEST PUSH2 0x663 DUP2 DUP6 PUSH2 0x607 JUMP JUMPDEST SWAP4 POP PUSH2 0x673 DUP2 DUP6 PUSH1 0x20 DUP7 ADD PUSH2 0x617 JUMP JUMPDEST PUSH2 0x67C DUP2 PUSH2 0x63F JUMP JUMPDEST DUP5 ADD SWAP2 POP POP SWAP3 SWAP2 POP POP JUMP JUMPDEST PUSH0 PUSH1 0x20 DUP3 ADD SWAP1 POP DUP2 DUP2 SUB PUSH0 DUP4 ADD MSTORE PUSH2 0x69F DUP2 DUP5 PUSH2 0x64F JUMP JUMPDEST SWAP1 POP SWAP3 SWAP2 POP POP JUMP JUMPDEST PUSH0 DUP1 REVERT JUMPDEST PUSH0 DUP1 REVERT JUMPDEST PUSH32 0x4E487B7100000000000000000000000000000000000000000000000000000000 PUSH0 MSTORE PUSH1 0x41 PUSH1 0x4 MSTORE PUSH1 0x24 PUSH0 REVERT JUMPDEST PUSH2 0x6E5 DUP3 PUSH2 0x63F JUMP JUMPDEST DUP2 ADD DUP2 DUP2 LT PUSH8 0xFFFFFFFFFFFFFFFF DUP3 GT OR ISZERO PUSH2 0x704 JUMPI PUSH2 0x703 PUSH2 0x6AF JUMP JUMPDEST JUMPDEST DUP1 PUSH1 0x40 MSTORE POP POP POP JUMP JUMPDEST PUSH0 PUSH2 0x716 PUSH2 0x58E JUMP JUMPDEST SWAP1 POP PUSH2 0x722 DUP3 DUP3 PUSH2 0x6DC JUMP JUMPDEST SWAP2 SWAP1 POP JUMP JUMPDEST PUSH0 PUSH8 0xFFFFFFFFFFFFFFFF DUP3 GT ISZERO PUSH2 0x741 JUMPI PUSH2 0x740 PUSH2 0x6AF JUMP JUMPDEST JUMPDEST PUSH2 0x74A DUP3 PUSH2 0x63F JUMP JUMPDEST SWAP1 POP PUSH1 0x20 DUP2 ADD SWAP1 POP SWAP2 SWAP1 POP JUMP JUMPDEST DUP3 DUP2 DUP4 CALLDATACOPY PUSH0 DUP4 DUP4 ADD MSTORE POP POP POP JUMP JUMPDEST PUSH0 PUSH2 0x777 PUSH2 0x772 DUP5 PUSH2 0x727 JUMP JUMPDEST PUSH2 0x70D JUMP JUMPDEST SWAP1 POP DUP3 DUP2 MSTORE PUSH1 0x20 DUP2 ADD DUP5 DUP5 DUP5 ADD GT ISZERO PUSH2 0x793 JUMPI PUSH2 0x792 PUSH2 0x6AB JUMP JUMPDEST JUMPDEST PUSH2 0x79E DUP5 DUP3 DUP6 PUSH2 0x757 JUMP JUMPDEST POP SWAP4 SWAP3 POP POP POP JUMP JUMPDEST PUSH0 DUP3 PUSH1 0x1F DUP4 ADD SLT PUSH2 0x7BA JUMPI PUSH2 0x7B9 PUSH2 0x6A7 JUMP JUMPDEST JUMPDEST DUP2 CALLDATALOAD PUSH2 0x7CA DUP5 DUP3 PUSH1 0x20 DUP7 ADD PUSH2 0x765 JUMP JUMPDEST SWAP2 POP POP SWAP3 SWAP2 POP POP JUMP JUMPDEST PUSH0 PUSH1 0x20 DUP3 DUP5 SUB SLT ISZERO PUSH2 0x7E8 JUMPI PUSH2 0x7E7 PUSH2 0x597 JUMP JUMPDEST JUMPDEST PUSH0 DUP3 ADD CALLDATALOAD PUSH8 0xFFFFFFFFFFFFFFFF DUP2 GT ISZERO PUSH2 0x805 JUMPI PUSH2 0x804 PUSH2 0x59B JUMP JUMPDEST JUMPDEST PUSH2 0x811 DUP5 DUP3 DUP6 ADD PUSH2 0x7A6 JUMP JUMPDEST SWAP2 POP POP SWAP3 SWAP2 POP POP JUMP JUMPDEST PUSH0 PUSH20 0xFFFFFFFFFFFFFFFFFFFFFFFFFFFFFFFFFFFFFFFF DUP3 AND SWAP1 POP SWAP2 SWAP1 POP JUMP JUMPDEST PUSH0 PUSH2 0x843 DUP3 PUSH2 0x81A JUMP JUMPDEST SWAP1 POP SWAP2 SWAP1 POP JUMP JUMPDEST PUSH2 0x853 DUP2 PUSH2 0x839 JUMP JUMPDEST DUP3 MSTORE POP POP JUMP JUMPDEST PUSH0 PUSH1 0x20 DUP3 ADD SWAP1 POP PUSH2 0x86C PUSH0 DUP4 ADD DUP5 PUSH2 0x84A JUMP JUMPDEST SWAP3 SWAP2 POP POP JUMP JUMPDEST PUSH2 0x87B DUP2 PUSH2 0x839 JUMP JUMPDEST DUP2 EQ PUSH2 0x885 JUMPI PUSH0 DUP1 REVERT JUMPDEST POP JUMP JUMPDEST PUSH0 DUP2 CALLDATALOAD SWAP1 POP PUSH2 0x896 DUP2 PUSH2 0x872 JUMP JUMPDEST SWAP3 SWAP2 POP POP JUMP JUMPDEST PUSH0 PUSH1 0x20 DUP3 DUP5 SUB SLT ISZERO PUSH2 0x8B1 JUMPI PUSH2 0x8B0 PUSH2 0x597 JUMP JUMPDEST JUMPDEST PUSH0 PUSH2 0x8BE DUP5 DUP3 DUP6 ADD PUSH2 0x888 JUMP JUMPDEST SWAP2 POP POP SWAP3 SWAP2 POP POP JUMP JUMPDEST PUSH2 0x8D0 DUP2 PUSH2 0x59F JUMP JUMPDEST DUP3 MSTORE POP POP JUMP JUMPDEST PUSH0 PUSH1 0x20 DUP3 ADD SWAP1 POP PUSH2 0x8E9 PUSH0 DUP4 ADD DUP5 PUSH2 0x8C7 JUMP JUMPDEST SWAP3 SWAP2 POP POP JUMP JUMPDEST PUSH32 0x4F6E6C7920746865206F776E65722063616E20617070726F7665207573657273 PUSH0 DUP3 ADD MSTORE POP JUMP JUMPDEST PUSH0 PUSH2 0x923 PUSH1 0x20 DUP4 PUSH2 0x607 JUMP JUMPDEST SWAP2 POP PUSH2 0x92E DUP3 PUSH2 0x8EF JUMP JUMPDEST PUSH1 0x20 DUP3 ADD SWAP1 POP SWAP2 SWAP1 POP JUMP JUMPDEST PUSH0 PUSH1 0x20 DUP3 ADD SWAP1 POP DUP2 DUP2 SUB PUSH0 DUP4 ADD MSTORE PUSH2 0x950 DUP2 PUSH2 0x917 JUMP JUMPDEST SWAP1 POP SWAP2 SWAP1 POP JUMP JUMPDEST PUSH32 0x5573657220697320616C726561647920617070726F7665640000000000000000 PUSH0 DUP3 ADD MSTORE POP JUMP JUMPDEST PUSH0 PUSH2 0x98B PUSH1 0x18 DUP4 PUSH2 0x607 JUMP JUMPDEST SWAP2 POP PUSH2 0x996 DUP3 PUSH2 0x957 JUMP JUMPDEST PUSH1 0x20 DUP3 ADD SWAP1 POP SWAP2 SWAP1 POP JUMP JUMPDEST PUSH0 PUSH1 0x20 DUP3 ADD SWAP1 POP DUP2 DUP2 SUB PUSH0 DUP4 ADD MSTORE PUSH2 0x9B8 DUP2 PUSH2 0x97F JUMP JUMPDEST SWAP1 POP SWAP2 SWAP1 POP JUMP JUMPDEST PUSH0 PUSH1 0x40 DUP3 ADD SWAP1 POP PUSH2 0x9D2 PUSH0 DUP4 ADD DUP6 PUSH2 0x8C7 JUMP JUMPDEST PUSH2 0x9DF PUSH1 0x20 DUP4 ADD DUP5 PUSH2 0x84A JUMP JUMPDEST SWAP4 SWAP3 POP POP POP JUMP JUMPDEST PUSH32 0x4E487B7100000000000000000000000000000000000000000000000000000000 PUSH0 MSTORE PUSH1 0x22 PUSH1 0x4 MSTORE PUSH1 0x24 PUSH0 REVERT JUMPDEST PUSH0 PUSH1 0x2 DUP3 DIV SWAP1 POP PUSH1 0x1 DUP3 AND DUP1 PUSH2 0xA2A JUMPI PUSH1 0x7F DUP3 AND SWAP2 POP JUMPDEST PUSH1 0x20 DUP3 LT DUP2 SUB PUSH2 0xA3D JUMPI PUSH2 0xA3C PUSH2 0x9E6 JUMP JUMPDEST JUMPDEST POP SWAP2 SWAP1 POP JUMP JUMPDEST PUSH32 0x55736572206E6F7420617070726F766564000000000000000000000000000000 PUSH0 DUP3 ADD MSTORE POP JUMP JUMPDEST PUSH0 PUSH2 0xA77 PUSH1 0x11 DUP4 PUSH2 0x607 JUMP JUMPDEST SWAP2 POP PUSH2 0xA82 DUP3 PUSH2 0xA43 JUMP JUMPDEST PUSH1 0x20 DUP3 ADD SWAP1 POP SWAP2 SWAP1 POP JUMP JUMPDEST PUSH0 PUSH1 0x20 DUP3 ADD SWAP1 POP DUP2 DUP2 SUB PUSH0 DUP4 ADD MSTORE PUSH2 0xAA4 DUP2 PUSH2 0xA6B JUMP JUMPDEST SWAP1 POP SWAP2 SWAP1 POP JUMP JUMPDEST PUSH0 DUP2 SWAP1 POP DUP2 PUSH0 MSTORE PUSH1 0x20 PUSH0 KECCAK256 SWAP1 POP SWAP2 SWAP1 POP JUMP JUMPDEST PUSH0 PUSH1 0x20 PUSH1 0x1F DUP4 ADD DIV SWAP1 POP SWAP2 SWAP1 POP JUMP JUMPDEST PUSH0 DUP3 DUP3 SHL SWAP1 POP SWAP3 SWAP2 POP POP JUMP JUMPDEST PUSH0 PUSH1 0x8 DUP4 MUL PUSH2 0xB07 PUSH32 0xFFFFFFFFFFFFFFFFFFFFFFFFFFFFFFFFFFFFFFFFFFFFFFFFFFFFFFFFFFFFFFFF DUP3 PUSH2 0xACC JUMP JUMPDEST PUSH2 0xB11 DUP7 DUP4 PUSH2 0xACC JUMP JUMPDEST SWAP6 POP DUP1 NOT DUP5 AND SWAP4 POP DUP1 DUP7 AND DUP5 OR SWAP3 POP POP POP SWAP4 SWAP3 POP POP POP JUMP JUMPDEST PUSH0 DUP2 SWAP1 POP SWAP2 SWAP1 POP JUMP JUMPDEST PUSH0 PUSH2 0xB4C PUSH2 0xB47 PUSH2 0xB42 DUP5 PUSH2 0x59F JUMP JUMPDEST PUSH2 0xB29 JUMP JUMPDEST PUSH2 0x59F JUMP JUMPDEST SWAP1 POP SWAP2 SWAP1 POP JUMP JUMPDEST PUSH0 DUP2 SWAP1 POP SWAP2 SWAP1 POP JUMP JUMPDEST PUSH2 0xB65 DUP4 PUSH2 0xB32 JUMP JUMPDEST PUSH2 0xB79 PUSH2 0xB71 DUP3 PUSH2 0xB53 JUMP JUMPDEST DUP5 DUP5 SLOAD PUSH2 0xAD8 JUMP JUMPDEST DUP3 SSTORE POP POP POP POP JUMP JUMPDEST PUSH0 SWAP1 JUMP JUMPDEST PUSH2 0xB8D PUSH2 0xB81 JUMP JUMPDEST PUSH2 0xB98 DUP2 DUP5 DUP5 PUSH2 0xB5C JUMP JUMPDEST POP POP POP JUMP JUMPDEST JUMPDEST DUP2 DUP2 LT ISZERO PUSH2 0xBBB JUMPI PUSH2 0xBB0 PUSH0 DUP3 PUSH2 0xB85 JUMP JUMPDEST PUSH1 0x1 DUP2 ADD SWAP1 POP PUSH2 0xB9E JUMP JUMPDEST POP POP JUMP JUMPDEST PUSH1 0x1F DUP3 GT ISZERO PUSH2 0xC00 JUMPI PUSH2 0xBD1 DUP2 PUSH2 0xAAB JUMP JUMPDEST PUSH2 0xBDA DUP5 PUSH2 0xABD JUMP JUMPDEST DUP2 ADD PUSH1 0x20 DUP6 LT ISZERO PUSH2 0xBE9 JUMPI DUP2 SWAP1 POP JUMPDEST PUSH2 0xBFD PUSH2 0xBF5 DUP6 PUSH2 0xABD JUMP JUMPDEST DUP4 ADD DUP3 PUSH2 0xB9D JUMP JUMPDEST POP POP JUMPDEST POP POP POP JUMP JUMPDEST PUSH0 DUP3 DUP3 SHR SWAP1 POP SWAP3 SWAP2 POP POP JUMP JUMPDEST PUSH0 PUSH2 0xC20 PUSH0 NOT DUP5 PUSH1 0x8 MUL PUSH2 0xC05 JUMP JUMPDEST NOT DUP1 DUP4 AND SWAP2 POP POP SWAP3 SWAP2 POP POP JUMP JUMPDEST PUSH0 PUSH2 0xC38 DUP4 DUP4 PUSH2 0xC11 JUMP JUMPDEST SWAP2 POP DUP3 PUSH1 0x2 MUL DUP3 OR SWAP1 POP SWAP3 SWAP2 POP POP JUMP JUMPDEST PUSH2 0xC51 DUP3 PUSH2 0x5FD JUMP JUMPDEST PUSH8 0xFFFFFFFFFFFFFFFF DUP2 GT ISZERO PUSH2 0xC6A JUMPI PUSH2 0xC69 PUSH2 0x6AF JUMP JUMPDEST JUMPDEST PUSH2 0xC74 DUP3 SLOAD PUSH2 0xA13 JUMP JUMPDEST PUSH2 0xC7F DUP3 DUP3 DUP6 PUSH2 0xBBF JUMP JUMPDEST PUSH0 PUSH1 0x20 SWAP1 POP PUSH1 0x1F DUP4 GT PUSH1 0x1 DUP2 EQ PUSH2 0xCB0 JUMPI PUSH0 DUP5 ISZERO PUSH2 0xC9E JUMPI DUP3 DUP8 ADD MLOAD SWAP1 POP JUMPDEST PUSH2 0xCA8 DUP6 DUP3 PUSH2 0xC2D JUMP JUMPDEST DUP7 SSTORE POP PUSH2 0xD0F JUMP JUMPDEST PUSH1 0x1F NOT DUP5 AND PUSH2 0xCBE DUP7 PUSH2 0xAAB JUMP JUMPDEST PUSH0 JUMPDEST DUP3 DUP2 LT ISZERO PUSH2 0xCE5 JUMPI DUP5 DUP10 ADD MLOAD DUP3 SSTORE PUSH1 0x1 DUP3 ADD SWAP2 POP PUSH1 0x20 DUP6 ADD SWAP5 POP PUSH1 0x20 DUP2 ADD SWAP1 POP PUSH2 0xCC0 JUMP JUMPDEST DUP7 DUP4 LT ISZERO PUSH2 0xD02 JUMPI DUP5 DUP10 ADD MLOAD PUSH2 0xCFE PUSH1 0x1F DUP10 AND DUP3 PUSH2 0xC11 JUMP JUMPDEST DUP4 SSTORE POP JUMPDEST PUSH1 0x1 PUSH1 0x2 DUP9 MUL ADD DUP9 SSTORE POP POP POP JUMPDEST POP POP POP POP POP POP JUMP JUMPDEST PUSH0 DUP2 PUSH1 0x60 SHL SWAP1 POP SWAP2 SWAP1 POP JUMP JUMPDEST PUSH0 PUSH2 0xD2D DUP3 PUSH2 0xD17 JUMP JUMPDEST SWAP1 POP SWAP2 SWAP1 POP JUMP JUMPDEST PUSH0 PUSH2 0xD3E DUP3 PUSH2 0xD23 JUMP JUMPDEST SWAP1 POP SWAP2 SWAP1 POP JUMP JUMPDEST PUSH2 0xD56 PUSH2 0xD51 DUP3 PUSH2 0x839 JUMP JUMPDEST PUSH2 0xD34 JUMP JUMPDEST DUP3 MSTORE POP POP JUMP JUMPDEST PUSH0 PUSH2 0xD67 DUP3 DUP5 PUSH2 0xD45 JUMP JUMPDEST PUSH1 0x14 DUP3 ADD SWAP2 POP DUP2 SWAP1 POP SWAP3 SWAP2 POP POP JUMP JUMPDEST PUSH32 0x4E487B7100000000000000000000000000000000000000000000000000000000 PUSH0 MSTORE PUSH1 0x11 PUSH1 0x4 MSTORE PUSH1 0x24 PUSH0 REVERT JUMPDEST PUSH0 PUSH2 0xDAD DUP3 PUSH2 0x59F JUMP JUMPDEST SWAP2 POP PUSH32 0xFFFFFFFFFFFFFFFFFFFFFFFFFFFFFFFFFFFFFFFFFFFFFFFFFFFFFFFFFFFFFFFF DUP3 SUB PUSH2 0xDDF JUMPI PUSH2 0xDDE PUSH2 0xD76 JUMP JUMPDEST JUMPDEST PUSH1 0x1 DUP3 ADD SWAP1 POP SWAP2 SWAP1 POP JUMP INVALID LOG2 PUSH5 0x6970667358 0x22 SLT KECCAK256 JUMP CALLDATASIZE CALLDATALOAD 0xBA 0xD5 MUL OR 0xC7 CREATE2 0xE9 0xCE SELFDESTRUCT 0xBE EXTCODEHASH 0xB6 SWAP16 0xBE SHL 0xED PUSH26 0x1A2C18D26CAF1EAF7B4C2D9264736F6C63430008180033000000 "
				},
				"gasEstimates": {
					"creation": {
						"codeDepositCost": "723200",
						"executionCost": "47130",
						"totalCost": "770330"
					},
					"external": {
						"": "151",
						"approveUser(uint256)": "infinite",
						"data()": "infinite",
						"getData()": "infinite",
						"getOwner()": "2559",
						"registerUser(string)": "infinite",
						"setData(string)": "infinite",
						"usageId(address)": "infinite"
					},
					"internal": {
						"generateUniqueId()": "26489"
					}
				},
				"methodIdentifiers": {
					"approveUser(uint256)": "21c4d12a",
					"data()": "73d4a13a",
					"getData()": "3bc5de30",
					"getOwner()": "893d20e8",
					"registerUser(string)": "704f1b94",
					"setData(string)": "47064d6a",
					"usageId(address)": "bdccea16"
				}
			},
			"storageLayout": {
				"storage": [
					{
						"astId": 3,
						"contract": "MyContract.sol:MyContract",
						"label": "data",
						"offset": 0,
						"slot": "0",
						"type": "t_string_storage"
					},
					{
						"astId": 5,
						"contract": "MyContract.sol:MyContract",
						"label": "userIdCounter",
						"offset": 0,
						"slot": "1",
						"type": "t_uint256"
					},
					{
						"astId": 7,
						"contract": "MyContract.sol:MyContract",
						"label": "contractOwner",
						"offset": 0,
						"slot": "2",
						"type": "t_address"
					},
					{
						"astId": 27,
						"contract": "MyContract.sol:MyContract",
						"label": "approvedUsers",
						"offset": 0,
						"slot": "3",
						"type": "t_mapping(t_uint256,t_bool)"
					}
				],
				"types": {
					"t_address": {
						"encoding": "inplace",
						"label": "address",
						"numberOfBytes": "20"
					},
					"t_bool": {
						"encoding": "inplace",
						"label": "bool",
						"numberOfBytes": "1"
					},
					"t_mapping(t_uint256,t_bool)": {
						"encoding": "mapping",
						"key": "t_uint256",
						"label": "mapping(uint256 => bool)",
						"numberOfBytes": "32",
						"value": "t_bool"
					},
					"t_string_storage": {
						"encoding": "bytes",
						"label": "string",
						"numberOfBytes": "32"
					},
					"t_uint256": {
						"encoding": "inplace",
						"label": "uint256",
						"numberOfBytes": "32"
					}
				}
			},
			"userdoc": {
				"kind": "user",
				"methods": {},
				"version": 1
			}
		}
	}
}